{
  "contractName": "ClaimRepository",
  "abi": [
    {
      "constant": true,
      "inputs": [],
      "name": "totalClaims",
      "outputs": [
        {
          "name": "",
          "type": "uint256"
        }
      ],
      "payable": false,
      "stateMutability": "view",
      "type": "function"
    },
    {
      "constant": true,
      "inputs": [
        {
          "name": "",
          "type": "address"
        }
      ],
      "name": "callers",
      "outputs": [
        {
          "name": "",
          "type": "bool"
        }
      ],
      "payable": false,
      "stateMutability": "view",
      "type": "function"
    },
    {
      "constant": true,
      "inputs": [],
      "name": "owner",
      "outputs": [
        {
          "name": "",
          "type": "address"
        }
      ],
      "payable": false,
      "stateMutability": "view",
      "type": "function"
    },
    {
      "constant": false,
      "inputs": [
        {
          "name": "_newOwner",
          "type": "address"
        }
      ],
      "name": "changeOwner",
      "outputs": [],
      "payable": false,
      "stateMutability": "nonpayable",
      "type": "function"
    },
    {
      "inputs": [],
      "payable": false,
      "stateMutability": "nonpayable",
      "type": "constructor"
    },
    {
      "payable": false,
      "stateMutability": "nonpayable",
      "type": "fallback"
    },
    {
      "constant": false,
      "inputs": [
        {
          "name": "_solverAddress",
          "type": "address"
        },
        {
          "name": "_platform",
          "type": "bytes32"
        },
        {
          "name": "_platformId",
          "type": "string"
        },
        {
          "name": "_solver",
          "type": "string"
        },
        {
          "name": "_token",
          "type": "address"
        },
        {
          "name": "_requestBalance",
          "type": "uint256"
        }
      ],
      "name": "addClaim",
      "outputs": [
        {
          "name": "",
          "type": "bool"
        }
      ],
      "payable": false,
      "stateMutability": "nonpayable",
      "type": "function"
    },
    {
      "constant": false,
      "inputs": [
        {
          "name": "_caller",
          "type": "address"
        },
        {
          "name": "allowed",
          "type": "bool"
        }
      ],
      "name": "updateCaller",
      "outputs": [],
      "payable": false,
      "stateMutability": "nonpayable",
      "type": "function"
    }
  ],
  "bytecode": "0x6060604052341561000f57600080fd5b336000806101000a81548173ffffffffffffffffffffffffffffffffffffffff021916908373ffffffffffffffffffffffffffffffffffffffff160217905550610ca38061005e6000396000f300606060405260043610610078576000357c0100000000000000000000000000000000000000000000000000000000900463ffffffff16806341c61383146100855780637bbf4a3f146100ae5780638da5cb5b146100ff578063a6f9dae114610154578063dbbd3a711461018d578063dfbed62314610299575b341561008357600080fd5b005b341561009057600080fd5b6100986102dd565b6040518082815260200191505060405180910390f35b34156100b957600080fd5b6100e5600480803573ffffffffffffffffffffffffffffffffffffffff169060200190919050506102e3565b604051808215151515815260200191505060405180910390f35b341561010a57600080fd5b610112610303565b604051808273ffffffffffffffffffffffffffffffffffffffff1673ffffffffffffffffffffffffffffffffffffffff16815260200191505060405180910390f35b341561015f57600080fd5b61018b600480803573ffffffffffffffffffffffffffffffffffffffff16906020019091905050610328565b005b341561019857600080fd5b61027f600480803573ffffffffffffffffffffffffffffffffffffffff169060200190919080356000191690602001909190803590602001908201803590602001908080601f0160208091040260200160405190810160405280939291908181526020018383808284378201915050505050509190803590602001908201803590602001908080601f0160208091040260200160405190810160405280939291908181526020018383808284378201915050505050509190803573ffffffffffffffffffffffffffffffffffffffff169060200190919080359060200190919050506103c6565b604051808215151515815260200191505060405180910390f35b34156102a457600080fd5b6102db600480803573ffffffffffffffffffffffffffffffffffffffff169060200190919080351515906020019091905050610ad2565b005b60035481565b60026020528060005260406000206000915054906101000a900460ff1681565b6000809054906101000a900473ffffffffffffffffffffffffffffffffffffffff1681565b6000809054906101000a900473ffffffffffffffffffffffffffffffffffffffff1673ffffffffffffffffffffffffffffffffffffffff163373ffffffffffffffffffffffffffffffffffffffff1614151561038357600080fd5b806000806101000a81548173ffffffffffffffffffffffffffffffffffffffff021916908373ffffffffffffffffffffffffffffffffffffffff16021790555050565b6000600260003373ffffffffffffffffffffffffffffffffffffffff1673ffffffffffffffffffffffffffffffffffffffff16815260200190815260200160002060009054906101000a900460ff16151561042057600080fd5b600073ffffffffffffffffffffffffffffffffffffffff16600160008860001916600019168152602001908152602001600020866040518082805190602001908083835b6020831015156104895780518252602082019150602081019050602083039250610464565b6001836020036101000a038019825116818451168082178552505050505050905001915050908152602001604051809103902060000160009054906101000a900473ffffffffffffffffffffffffffffffffffffffff1673ffffffffffffffffffffffffffffffffffffffff16141515610794578673ffffffffffffffffffffffffffffffffffffffff16600160008860001916600019168152602001908152602001600020866040518082805190602001908083835b6020831015156105655780518252602082019150602081019050602083039250610540565b6001836020036101000a038019825116818451168082178552505050505050905001915050908152602001604051809103902060000160009054906101000a900473ffffffffffffffffffffffffffffffffffffffff1673ffffffffffffffffffffffffffffffffffffffff161415156105de57600080fd5b600160008760001916600019168152602001908152602001600020856040518082805190602001908083835b60208310151561062f578051825260208201915060208101905060208303925061060a565b6001836020036101000a038019825116818451168082178552505050505050905001915050908152602001604051809103902060020180548060010182816106779190610ba6565b9160005260206000209001600085909190916101000a81548173ffffffffffffffffffffffffffffffffffffffff021916908373ffffffffffffffffffffffffffffffffffffffff1602179055505081600160008860001916600019168152602001908152602001600020866040518082805190602001908083835b60208310151561071857805182526020820191506020810190506020830392506106f3565b6001836020036101000a038019825116818451168082178552505050505050905001915050908152602001604051809103902060030160008573ffffffffffffffffffffffffffffffffffffffff1673ffffffffffffffffffffffffffffffffffffffff16815260200190815260200160002081905550610ac4565b83600160008860001916600019168152602001908152602001600020866040518082805190602001908083835b6020831015156107e657805182526020820191506020810190506020830392506107c1565b6001836020036101000a0380198251168184511680821785525050505050509050019150509081526020016040518091039020600101908051906020019061082f929190610bd2565b5086600160008860001916600019168152602001908152602001600020866040518082805190602001908083835b602083101515610882578051825260208201915060208101905060208303925061085d565b6001836020036101000a038019825116818451168082178552505050505050905001915050908152602001604051809103902060000160006101000a81548173ffffffffffffffffffffffffffffffffffffffff021916908373ffffffffffffffffffffffffffffffffffffffff160217905550600160008760001916600019168152602001908152602001600020856040518082805190602001908083835b6020831015156109475780518252602082019150602081019050602083039250610922565b6001836020036101000a0380198251168184511680821785525050505050509050019150509081526020016040518091039020600201805480600101828161098f9190610ba6565b9160005260206000209001600085909190916101000a81548173ffffffffffffffffffffffffffffffffffffffff021916908373ffffffffffffffffffffffffffffffffffffffff1602179055505081600160008860001916600019168152602001908152602001600020866040518082805190602001908083835b602083101515610a305780518252602082019150602081019050602083039250610a0b565b6001836020036101000a038019825116818451168082178552505050505050905001915050908152602001604051809103902060030160008573ffffffffffffffffffffffffffffffffffffffff1673ffffffffffffffffffffffffffffffffffffffff16815260200190815260200160002081905550610abd6001600354610b8890919063ffffffff16565b6003819055505b600190509695505050505050565b6000809054906101000a900473ffffffffffffffffffffffffffffffffffffffff1673ffffffffffffffffffffffffffffffffffffffff163373ffffffffffffffffffffffffffffffffffffffff16141515610b2d57600080fd5b80600260008473ffffffffffffffffffffffffffffffffffffffff1673ffffffffffffffffffffffffffffffffffffffff16815260200190815260200160002060006101000a81548160ff0219169083151502179055505050565b6000808284019050838110151515610b9c57fe5b8091505092915050565b815481835581811511610bcd57818360005260206000209182019101610bcc9190610c52565b5b505050565b828054600181600116156101000203166002900490600052602060002090601f016020900481019282601f10610c1357805160ff1916838001178555610c41565b82800160010185558215610c41579182015b82811115610c40578251825591602001919060010190610c25565b5b509050610c4e9190610c52565b5090565b610c7491905b80821115610c70576000816000905550600101610c58565b5090565b905600a165627a7a72305820c9f7cbcff0baf5492f3d587735919a223dfe134b4ea3422d5776a15b5fb75b820029",
  "source": "pragma solidity 0.4.21;\n\nimport \"../../ownership/Owned.sol\";\nimport \"../../math/SafeMath.sol\";\n\n\ncontract ClaimRepository is Owned {\n    using SafeMath for uint256;\n\n    //platform -> platformId => _claim\n    mapping(bytes32 => mapping(string => Claim)) claims;\n\n    //sender => _allowed\n    mapping(address => bool) public callers;\n\n    uint256 public totalClaims;\n\n\n    //modifiers\n    modifier onlyCaller {\n        require(callers[msg.sender]);\n        _;\n    }\n\n    struct Claim {\n        address solverAddress;\n        string solver;\n        address[] tokens;\n        mapping(address => uint256) amountPerTokens;\n    }\n\n    function ClaimRepository() public {\n        //constructor\n    }\n\n    function addClaim(address _solverAddress, bytes32 _platform, string _platformId, string _solver, address _token, uint256 _requestBalance) public onlyCaller returns (bool) {\n        if (claims[_platform][_platformId].solverAddress != address(0)) {\n            require(claims[_platform][_platformId].solverAddress == _solverAddress);\n            claims[_platform][_platformId].tokens.push(_token);\n            claims[_platform][_platformId].amountPerTokens[_token] = _requestBalance;\n        } else {\n            claims[_platform][_platformId].solver = _solver;\n            claims[_platform][_platformId].solverAddress = _solverAddress;\n            claims[_platform][_platformId].tokens.push(_token);\n            claims[_platform][_platformId].amountPerTokens[_token] = _requestBalance;\n            totalClaims = totalClaims.add(1);\n        }\n        return true;\n    }\n\n    //management of the repositories\n    function updateCaller(address _caller, bool allowed) public onlyOwner {\n        callers[_caller] = allowed;\n    }\n\n    function() public {\n        // dont receive ether via fallback\n    }\n}",
  "sourcePath": "/Users/QuintenDes/FundRequest/contracts/contracts/platform/repository/ClaimRepository.sol",
  "compiler": {
    "name": "solc",
    "version": "0.4.21+commit.dfe3193c.Emscripten.clang"
  },
  "schemaVersion": "2.0.0",
  "updatedAt": "2018-04-05T08:53:43.645Z"
}