{
  "contractName": "FundRequestContract",
  "abi": [
    {
      "constant": true,
      "inputs": [],
      "name": "claimSignerAddress",
      "outputs": [
        {
          "name": "",
          "type": "address"
        }
      ],
      "payable": false,
      "stateMutability": "view",
      "type": "function"
    },
    {
      "constant": true,
      "inputs": [
        {
          "name": "",
          "type": "uint256"
        }
      ],
      "name": "preconditions",
      "outputs": [
        {
          "name": "",
          "type": "address"
        }
      ],
      "payable": false,
      "stateMutability": "view",
      "type": "function"
    },
    {
      "constant": true,
      "inputs": [],
      "name": "fundRepository",
      "outputs": [
        {
          "name": "",
          "type": "address"
        }
      ],
      "payable": false,
      "stateMutability": "view",
      "type": "function"
    },
    {
      "constant": true,
      "inputs": [],
      "name": "owner",
      "outputs": [
        {
          "name": "",
          "type": "address"
        }
      ],
      "payable": false,
      "stateMutability": "view",
      "type": "function"
    },
    {
      "constant": true,
      "inputs": [],
      "name": "claimRepository",
      "outputs": [
        {
          "name": "",
          "type": "address"
        }
      ],
      "payable": false,
      "stateMutability": "view",
      "type": "function"
    },
    {
      "constant": false,
      "inputs": [
        {
          "name": "_newOwner",
          "type": "address"
        }
      ],
      "name": "changeOwner",
      "outputs": [],
      "payable": false,
      "stateMutability": "nonpayable",
      "type": "function"
    },
    {
      "inputs": [
        {
          "name": "_fundRepository",
          "type": "address"
        },
        {
          "name": "_claimRepository",
          "type": "address"
        }
      ],
      "payable": false,
      "stateMutability": "nonpayable",
      "type": "constructor"
    },
    {
      "payable": false,
      "stateMutability": "nonpayable",
      "type": "fallback"
    },
    {
      "anonymous": false,
      "inputs": [
        {
          "indexed": true,
          "name": "from",
          "type": "address"
        },
        {
          "indexed": false,
          "name": "platform",
          "type": "bytes32"
        },
        {
          "indexed": false,
          "name": "platformId",
          "type": "string"
        },
        {
          "indexed": false,
          "name": "token",
          "type": "address"
        },
        {
          "indexed": false,
          "name": "value",
          "type": "uint256"
        }
      ],
      "name": "Funded",
      "type": "event"
    },
    {
      "anonymous": false,
      "inputs": [
        {
          "indexed": true,
          "name": "solverAddress",
          "type": "address"
        },
        {
          "indexed": false,
          "name": "platform",
          "type": "bytes32"
        },
        {
          "indexed": false,
          "name": "platformId",
          "type": "string"
        },
        {
          "indexed": false,
          "name": "solver",
          "type": "string"
        },
        {
          "indexed": false,
          "name": "token",
          "type": "address"
        },
        {
          "indexed": false,
          "name": "value",
          "type": "uint256"
        }
      ],
      "name": "Claimed",
      "type": "event"
    },
    {
      "constant": false,
      "inputs": [
        {
          "name": "_platform",
          "type": "bytes32"
        },
        {
          "name": "_platformId",
          "type": "string"
        },
        {
          "name": "_token",
          "type": "address"
        },
        {
          "name": "_value",
          "type": "uint256"
        }
      ],
      "name": "fund",
      "outputs": [
        {
          "name": "success",
          "type": "bool"
        }
      ],
      "payable": false,
      "stateMutability": "nonpayable",
      "type": "function"
    },
    {
      "constant": false,
      "inputs": [
        {
          "name": "_from",
          "type": "address"
        },
        {
          "name": "_amount",
          "type": "uint256"
        },
        {
          "name": "_token",
          "type": "address"
        },
        {
          "name": "_data",
          "type": "bytes"
        }
      ],
      "name": "receiveApproval",
      "outputs": [],
      "payable": false,
      "stateMutability": "nonpayable",
      "type": "function"
    },
    {
      "constant": false,
      "inputs": [
        {
          "name": "platform",
          "type": "bytes32"
        },
        {
          "name": "platformId",
          "type": "string"
        },
        {
          "name": "solver",
          "type": "string"
        },
        {
          "name": "solverAddress",
          "type": "address"
        },
        {
          "name": "r",
          "type": "bytes32"
        },
        {
          "name": "s",
          "type": "bytes32"
        },
        {
          "name": "v",
          "type": "uint8"
        }
      ],
      "name": "claim",
      "outputs": [
        {
          "name": "",
          "type": "bool"
        }
      ],
      "payable": false,
      "stateMutability": "nonpayable",
      "type": "function"
    },
    {
      "constant": false,
      "inputs": [
        {
          "name": "_precondition",
          "type": "address"
        }
      ],
      "name": "addPrecondition",
      "outputs": [],
      "payable": false,
      "stateMutability": "nonpayable",
      "type": "function"
    },
    {
      "constant": false,
      "inputs": [
        {
          "name": "_index",
          "type": "uint256"
        }
      ],
      "name": "removePrecondition",
      "outputs": [],
      "payable": false,
      "stateMutability": "nonpayable",
      "type": "function"
    },
    {
      "constant": false,
      "inputs": [
        {
          "name": "_repositoryAddress",
          "type": "address"
        }
      ],
      "name": "setFundRepository",
      "outputs": [],
      "payable": false,
      "stateMutability": "nonpayable",
      "type": "function"
    },
    {
      "constant": false,
      "inputs": [
        {
          "name": "_claimRepository",
          "type": "address"
        }
      ],
      "name": "setClaimRepository",
      "outputs": [],
      "payable": false,
      "stateMutability": "nonpayable",
      "type": "function"
    },
    {
      "constant": false,
      "inputs": [
        {
          "name": "_claimSignerAddress",
          "type": "address"
        }
      ],
      "name": "setClaimSignerAddress",
      "outputs": [],
      "payable": false,
      "stateMutability": "nonpayable",
      "type": "function"
    }
  ],
  "bytecode": "0x606060405234156200001057600080fd5b60405160408062002dbe83398101604052808051906020019091908051906020019091905050336000806101000a81548173ffffffffffffffffffffffffffffffffffffffff021916908373ffffffffffffffffffffffffffffffffffffffff1602179055506200009582620000bc6401000000000262000756176401000000009004565b620000b4816200015c64010000000002620006b7176401000000009004565b5050620001fc565b6000809054906101000a900473ffffffffffffffffffffffffffffffffffffffff1673ffffffffffffffffffffffffffffffffffffffff163373ffffffffffffffffffffffffffffffffffffffff161415156200011857600080fd5b80600160006101000a81548173ffffffffffffffffffffffffffffffffffffffff021916908373ffffffffffffffffffffffffffffffffffffffff16021790555050565b6000809054906101000a900473ffffffffffffffffffffffffffffffffffffffff1673ffffffffffffffffffffffffffffffffffffffff163373ffffffffffffffffffffffffffffffffffffffff16141515620001b857600080fd5b80600260006101000a81548173ffffffffffffffffffffffffffffffffffffffff021916908373ffffffffffffffffffffffffffffffffffffffff16021790555050565b612bb2806200020c6000396000f3006060604052600436106100d0576000357c0100000000000000000000000000000000000000000000000000000000900463ffffffff1680630b6fc163146100dd578063331297561461013257806336600999146101955780636cd7d86e146101ea578063740e2a29146102235780637b07788e1461025c57806385f529841461027f5780638da5cb5b146102b85780638f4ffcb11461030d578063914810a3146103b15780639963a8e014610406578063a6f9dae1146104b0578063b4cbdd8b146104e9578063b81b0b6a14610522575b34156100db57600080fd5b005b34156100e857600080fd5b6100f061062c565b604051808273ffffffffffffffffffffffffffffffffffffffff1673ffffffffffffffffffffffffffffffffffffffff16815260200191505060405180910390f35b341561013d57600080fd5b6101536004808035906020019091905050610652565b604051808273ffffffffffffffffffffffffffffffffffffffff1673ffffffffffffffffffffffffffffffffffffffff16815260200191505060405180910390f35b34156101a057600080fd5b6101a8610691565b604051808273ffffffffffffffffffffffffffffffffffffffff1673ffffffffffffffffffffffffffffffffffffffff16815260200191505060405180910390f35b34156101f557600080fd5b610221600480803573ffffffffffffffffffffffffffffffffffffffff169060200190919050506106b7565b005b341561022e57600080fd5b61025a600480803573ffffffffffffffffffffffffffffffffffffffff16906020019091905050610756565b005b341561026757600080fd5b61027d60048080359060200190919050506107f5565b005b341561028a57600080fd5b6102b6600480803573ffffffffffffffffffffffffffffffffffffffff16906020019091905050610890565b005b34156102c357600080fd5b6102cb610951565b604051808273ffffffffffffffffffffffffffffffffffffffff1673ffffffffffffffffffffffffffffffffffffffff16815260200191505060405180910390f35b341561031857600080fd5b6103af600480803573ffffffffffffffffffffffffffffffffffffffff1690602001909190803590602001909190803573ffffffffffffffffffffffffffffffffffffffff1690602001909190803590602001908201803590602001908080601f01602080910402602001604051908101604052809392919081815260200183838082843782019150505050505091905050610976565b005b34156103bc57600080fd5b6103c4610a6e565b604051808273ffffffffffffffffffffffffffffffffffffffff1673ffffffffffffffffffffffffffffffffffffffff16815260200191505060405180910390f35b341561041157600080fd5b61049660048080356000191690602001909190803590602001908201803590602001908080601f0160208091040260200160405190810160405280939291908181526020018383808284378201915050505050509190803573ffffffffffffffffffffffffffffffffffffffff16906020019091908035906020019091905050610a94565b604051808215151515815260200191505060405180910390f35b34156104bb57600080fd5b6104e7600480803573ffffffffffffffffffffffffffffffffffffffff16906020019091905050610aba565b005b34156104f457600080fd5b610520600480803573ffffffffffffffffffffffffffffffffffffffff16906020019091905050610b58565b005b341561052d57600080fd5b61061260048080356000191690602001909190803590602001908201803590602001908080601f0160208091040260200160405190810160405280939291908181526020018383808284378201915050505050509190803590602001908201803590602001908080601f0160208091040260200160405190810160405280939291908181526020018383808284378201915050505050509190803573ffffffffffffffffffffffffffffffffffffffff16906020019091908035600019169060200190919080356000191690602001909190803560ff16906020019091905050610c35565b604051808215151515815260200191505060405180910390f35b600360009054906101000a900473ffffffffffffffffffffffffffffffffffffffff1681565b60048181548110151561066157fe5b90600052602060002090016000915054906101000a900473ffffffffffffffffffffffffffffffffffffffff1681565b600160009054906101000a900473ffffffffffffffffffffffffffffffffffffffff1681565b6000809054906101000a900473ffffffffffffffffffffffffffffffffffffffff1673ffffffffffffffffffffffffffffffffffffffff163373ffffffffffffffffffffffffffffffffffffffff1614151561071257600080fd5b80600260006101000a81548173ffffffffffffffffffffffffffffffffffffffff021916908373ffffffffffffffffffffffffffffffffffffffff16021790555050565b6000809054906101000a900473ffffffffffffffffffffffffffffffffffffffff1673ffffffffffffffffffffffffffffffffffffffff163373ffffffffffffffffffffffffffffffffffffffff161415156107b157600080fd5b80600160006101000a81548173ffffffffffffffffffffffffffffffffffffffff021916908373ffffffffffffffffffffffffffffffffffffffff16021790555050565b6000809054906101000a900473ffffffffffffffffffffffffffffffffffffffff1673ffffffffffffffffffffffffffffffffffffffff163373ffffffffffffffffffffffffffffffffffffffff1614151561085057600080fd5b60048181548110151561085f57fe5b906000526020600020900160006101000a81549073ffffffffffffffffffffffffffffffffffffffff021916905550565b6000809054906101000a900473ffffffffffffffffffffffffffffffffffffffff1673ffffffffffffffffffffffffffffffffffffffff163373ffffffffffffffffffffffffffffffffffffffff161415156108eb57600080fd5b600480548060010182816108ff9190612af3565b9160005260206000209001600083909190916101000a81548173ffffffffffffffffffffffffffffffffffffffff021916908373ffffffffffffffffffffffffffffffffffffffff1602179055505050565b6000809054906101000a900473ffffffffffffffffffffffffffffffffffffffff1681565b61097e612b1f565b610986612b1f565b61098e612b1f565b61099784611575565b92506109e96109da6040805190810160405280600581526020017f7c4141437c000000000000000000000000000000000000000000000000000000815250611575565b846115a390919063ffffffff16565b9150610a3b610a2c6040805190810160405280600581526020017f7c4141437c000000000000000000000000000000000000000000000000000000815250611575565b846115a390919063ffffffff16565b9050610a5a610a49836115bd565b610a5283611602565b87898b611660565b1515610a6557600080fd5b50505050505050565b600260009054906101000a900473ffffffffffffffffffffffffffffffffffffffff1681565b6000610aa38585858533611660565b1515610aae57600080fd5b60019050949350505050565b6000809054906101000a900473ffffffffffffffffffffffffffffffffffffffff1673ffffffffffffffffffffffffffffffffffffffff163373ffffffffffffffffffffffffffffffffffffffff16141515610b1557600080fd5b806000806101000a81548173ffffffffffffffffffffffffffffffffffffffff021916908373ffffffffffffffffffffffffffffffffffffffff16021790555050565b80600073ffffffffffffffffffffffffffffffffffffffff168173ffffffffffffffffffffffffffffffffffffffff1614151515610b9557600080fd5b6000809054906101000a900473ffffffffffffffffffffffffffffffffffffffff1673ffffffffffffffffffffffffffffffffffffffff163373ffffffffffffffffffffffffffffffffffffffff16141515610bf057600080fd5b81600360006101000a81548173ffffffffffffffffffffffffffffffffffffffff021916908373ffffffffffffffffffffffffffffffffffffffff1602179055505050565b6000806000806000610c4c8c8c8c8c8c8c8c611d84565b1515610c5757600080fd5b600160009054906101000a900473ffffffffffffffffffffffffffffffffffffffff1673ffffffffffffffffffffffffffffffffffffffff1663b4d168f78d8d6040518363ffffffff167c010000000000000000000000000000000000000000000000000000000002815260040180836000191660001916815260200180602001828103825283818151815260200191508051906020019080838360005b83811015610d10578082015181840152602081019050610cf5565b50505050905090810190601f168015610d3d5780820380516001836020036101000a031916815260200191505b509350505050602060405180830381600087803b1515610d5c57600080fd5b5af11515610d6957600080fd5b505050604051805190509350600092505b8383101561143b57600160009054906101000a900473ffffffffffffffffffffffffffffffffffffffff1673ffffffffffffffffffffffffffffffffffffffff16633d7258318d8d866040518463ffffffff167c010000000000000000000000000000000000000000000000000000000002815260040180846000191660001916815260200180602001838152602001828103825284818151815260200191508051906020019080838360005b83811015610e42578082015181840152602081019050610e27565b50505050905090810190601f168015610e6f5780820380516001836020036101000a031916815260200191505b50945050505050602060405180830381600087803b1515610e8f57600080fd5b5af11515610e9c57600080fd5b505050604051805190509150600160009054906101000a900473ffffffffffffffffffffffffffffffffffffffff1673ffffffffffffffffffffffffffffffffffffffff166336e4f9158d8d856040518463ffffffff167c0100000000000000000000000000000000000000000000000000000000028152600401808460001916600019168152602001806020018373ffffffffffffffffffffffffffffffffffffffff1673ffffffffffffffffffffffffffffffffffffffff168152602001828103825284818151815260200191508051906020019080838360005b83811015610f94578082015181840152602081019050610f79565b50505050905090810190601f168015610fc15780820380516001836020036101000a031916815260200191505b50945050505050602060405180830381600087803b1515610fe157600080fd5b5af11515610fee57600080fd5b5050506040518051905090508173ffffffffffffffffffffffffffffffffffffffff1663a9059cbb8a836040518363ffffffff167c0100000000000000000000000000000000000000000000000000000000028152600401808373ffffffffffffffffffffffffffffffffffffffff1673ffffffffffffffffffffffffffffffffffffffff16815260200182815260200192505050602060405180830381600087803b151561109c57600080fd5b5af115156110a957600080fd5b5050506040518051905015156110be57600080fd5b600260009054906101000a900473ffffffffffffffffffffffffffffffffffffffff1673ffffffffffffffffffffffffffffffffffffffff1663dbbd3a718a8e8e8e87876040518763ffffffff167c0100000000000000000000000000000000000000000000000000000000028152600401808773ffffffffffffffffffffffffffffffffffffffff1673ffffffffffffffffffffffffffffffffffffffff168152602001866000191660001916815260200180602001806020018573ffffffffffffffffffffffffffffffffffffffff1673ffffffffffffffffffffffffffffffffffffffff168152602001848152602001838103835287818151815260200191508051906020019080838360005b838110156111e95780820151818401526020810190506111ce565b50505050905090810190601f1680156112165780820380516001836020036101000a031916815260200191505b50838103825286818151815260200191508051906020019080838360005b8381101561124f578082015181840152602081019050611234565b50505050905090810190601f16801561127c5780820380516001836020036101000a031916815260200191505b5098505050505050505050602060405180830381600087803b15156112a057600080fd5b5af115156112ad57600080fd5b5050506040518051905015156112c257600080fd5b8873ffffffffffffffffffffffffffffffffffffffff167f75e2571fd135a0fe6a85cd988e0771a1564c1c67b65a89fa74e13d15c5f96b228d8d8d868660405180866000191660001916815260200180602001806020018573ffffffffffffffffffffffffffffffffffffffff1673ffffffffffffffffffffffffffffffffffffffff168152602001848152602001838103835287818151815260200191508051906020019080838360005b8381101561138957808201518184015260208101905061136e565b50505050905090810190601f1680156113b65780820380516001836020036101000a031916815260200191505b50838103825286818151815260200191508051906020019080838360005b838110156113ef5780820151818401526020810190506113d4565b50505050905090810190601f16801561141c5780820380516001836020036101000a031916815260200191505b5097505050505050505060405180910390a28280600101935050610d7a565b600160009054906101000a900473ffffffffffffffffffffffffffffffffffffffff1673ffffffffffffffffffffffffffffffffffffffff1663474448c48d8d6040518363ffffffff167c010000000000000000000000000000000000000000000000000000000002815260040180836000191660001916815260200180602001828103825283818151815260200191508051906020019080838360005b838110156114f45780820151818401526020810190506114d9565b50505050905090810190601f1680156115215780820380516001836020036101000a031916815260200191505b509350505050602060405180830381600087803b151561154057600080fd5b5af1151561154d57600080fd5b50505060405180519050151561156257600080fd5b6001945050505050979650505050505050565b61157d612b1f565b600060208301905060408051908101604052808451815260200182815250915050919050565b6115ab612b1f565b6115b6838383611ed5565b5092915050565b60006115c7612b39565b6115cf612b4d565b6115d884611602565b91508190506000815114156115f357600060010292506115fb565b602082015192505b5050919050565b61160a612b39565b611612612b39565b600083600001516040518059106116265750595b9080825280601f01601f191660200182016040525091506020820190506116568185602001518660000151611f73565b8192505050919050565b600080600090505b6004805490508110156118a257600073ffffffffffffffffffffffffffffffffffffffff1660048281548110151561169c57fe5b906000526020600020900160009054906101000a900473ffffffffffffffffffffffffffffffffffffffff1673ffffffffffffffffffffffffffffffffffffffff16141515611895576004818154811015156116f457fe5b906000526020600020900160009054906101000a900473ffffffffffffffffffffffffffffffffffffffff1673ffffffffffffffffffffffffffffffffffffffff1663a8c23cb988888888886040518663ffffffff167c0100000000000000000000000000000000000000000000000000000000028152600401808660001916600019168152602001806020018573ffffffffffffffffffffffffffffffffffffffff1673ffffffffffffffffffffffffffffffffffffffff1681526020018481526020018373ffffffffffffffffffffffffffffffffffffffff1673ffffffffffffffffffffffffffffffffffffffff168152602001828103825286818151815260200191508051906020019080838360005b83811015611823578082015181840152602081019050611808565b50505050905090810190601f1680156118505780820380516001836020036101000a031916815260200191505b509650505050505050602060405180830381600087803b151561187257600080fd5b5af1151561187f57600080fd5b50505060405180519050151561189457600080fd5b5b8080600101915050611668565b6000841115156118b157600080fd5b8473ffffffffffffffffffffffffffffffffffffffff166323b872dd8430876040518463ffffffff167c0100000000000000000000000000000000000000000000000000000000028152600401808473ffffffffffffffffffffffffffffffffffffffff1673ffffffffffffffffffffffffffffffffffffffff1681526020018373ffffffffffffffffffffffffffffffffffffffff1673ffffffffffffffffffffffffffffffffffffffff1681526020018281526020019350505050602060405180830381600087803b151561198757600080fd5b5af1151561199457600080fd5b5050506040518051905015156119a957600080fd5b600160009054906101000a900473ffffffffffffffffffffffffffffffffffffffff1673ffffffffffffffffffffffffffffffffffffffff16639f819b138489896040518463ffffffff167c0100000000000000000000000000000000000000000000000000000000028152600401808473ffffffffffffffffffffffffffffffffffffffff1673ffffffffffffffffffffffffffffffffffffffff168152602001836000191660001916815260200180602001828103825283818151815260200191508051906020019080838360005b83811015611a95578082015181840152602081019050611a7a565b50505050905090810190601f168015611ac25780820380516001836020036101000a031916815260200191505b50945050505050600060405180830381600087803b1515611ae257600080fd5b5af11515611aef57600080fd5b505050600160009054906101000a900473ffffffffffffffffffffffffffffffffffffffff1673ffffffffffffffffffffffffffffffffffffffff1663844c7d9584898989896040518663ffffffff167c0100000000000000000000000000000000000000000000000000000000028152600401808673ffffffffffffffffffffffffffffffffffffffff1673ffffffffffffffffffffffffffffffffffffffff1681526020018560001916600019168152602001806020018473ffffffffffffffffffffffffffffffffffffffff1673ffffffffffffffffffffffffffffffffffffffff168152602001838152602001828103825285818151815260200191508051906020019080838360005b83811015611c18578082015181840152602081019050611bfd565b50505050905090810190601f168015611c455780820380516001836020036101000a031916815260200191505b509650505050505050600060405180830381600087803b1515611c6757600080fd5b5af11515611c7457600080fd5b5050508273ffffffffffffffffffffffffffffffffffffffff167fa8e42467e067b2e23dc8977de880b1c29b0441fdeeca47e601f253c000af7b3488888888604051808560001916600019168152602001806020018473ffffffffffffffffffffffffffffffffffffffff1673ffffffffffffffffffffffffffffffffffffffff168152602001838152602001828103825285818151815260200191508051906020019080838360005b83811015611d39578082015181840152602081019050611d1e565b50505050905090810190601f168015611d665780820380516001836020036101000a031916815260200191505b509550505050505060405180910390a2600191505095945050505050565b6000806000611d958a8a8a8a611fbe565b6040518082805190602001908083835b602083101515611dca5780518252602082019150602081019050602083039250611da5565b6001836020036101000a03801982511681845116808217855250505050505090500191505060405180910390209150600182858888604051600081526020016040526040518085600019166000191681526020018460ff1660ff1681526020018360001916600019168152602001826000191660001916815260200194505050505060206040516020810390808403906000865af11515611e6a57600080fd5b50506020604051035190508073ffffffffffffffffffffffffffffffffffffffff16600360009054906101000a900473ffffffffffffffffffffffffffffffffffffffff1673ffffffffffffffffffffffffffffffffffffffff161492505050979650505050505050565b611edd612b1f565b6000611efb856000015186602001518660000151876020015161202f565b90508460200151836020018181525050846020015181038360000181815250508460000151856020015101811415611f3d576000856000018181525050611f68565b8360000151836000015101856000018181510391508181525050836000015181018560200181815250505b829150509392505050565b60005b602082101515611f9b5782518452602084019350602083019250602082039150611f76565b6001826020036101000a0390508019835116818551168181178652505050505050565b611fc6612b39565b612025611fda611fd5846120eb565b61233a565b612017611fe68661233a565b612009611ff28961233a565b611ffb8b612391565b61257e90919063ffffffff16565b61257e90919063ffffffff16565b61257e90919063ffffffff16565b9050949350505050565b600080600080600088871115156120d9576020871115156120905760018760200360080260020a031980875116888b038a018a96505b81838851161461208557600187019650806001880310612065578b8b0196505b5050508394506120df565b8686209150879350600092505b868903831115156120d85786842090508060001916826000191614156120c5578394506120df565b600184019350828060010193505061209d565b5b88880194505b50505050949350505050565b6120f3612b39565b6120fb612b4d565b60008060008060286040518059106121105750595b9080825280601f01601f19166020018201604052509450600093505b60148410156122ef578360130360080260020a8773ffffffffffffffffffffffffffffffffffffffff1681151561215f57fe5b047f01000000000000000000000000000000000000000000000000000000000000000292506010837f0100000000000000000000000000000000000000000000000000000000000000900460ff168115156121b657fe5b047f0100000000000000000000000000000000000000000000000000000000000000029150817f01000000000000000000000000000000000000000000000000000000000000009004601002837f01000000000000000000000000000000000000000000000000000000000000009004037f0100000000000000000000000000000000000000000000000000000000000000029050612254826125cb565b858560020281518110151561226557fe5b9060200101907effffffffffffffffffffffffffffffffffffffffffffffffffffffffffffff1916908160001a90535061229e816125cb565b85600186600202018151811015156122b257fe5b9060200101907effffffffffffffffffffffffffffffffffffffffffffffffffffffffffffff1916908160001a905350838060010194505061212c565b61232e6040805190810160405280600281526020017f30780000000000000000000000000000000000000000000000000000000000008152508661257e565b95505050505050919050565b612342612b39565b61238a826040805190810160405280600181526020017f5f0000000000000000000000000000000000000000000000000000000000000081525061257e90919063ffffffff16565b9050919050565b612399612b39565b6123a1612b4d565b60008060006123ae612b4d565b60206040518059106123bd5750595b9080825280601f01601f1916602001820160405250945060009350600092505b602083101561249b578260080260020a876001900402600102915060007f010000000000000000000000000000000000000000000000000000000000000002827effffffffffffffffffffffffffffffffffffffffffffffffffffffffffffff191614151561248e5781858581518110151561245557fe5b9060200101907effffffffffffffffffffffffffffffffffffffffffffffffffffffffffffff1916908160001a90535083806001019450505b82806001019350506123dd565b836040518059106124a95750595b9080825280601f01601f19166020018201604052509050600092505b838310156125715784838151811015156124db57fe5b9060200101517f010000000000000000000000000000000000000000000000000000000000000090047f010000000000000000000000000000000000000000000000000000000000000002818481518110151561253457fe5b9060200101907effffffffffffffffffffffffffffffffffffffffffffffffffffffffffffff1916908160001a90535082806001019350506124c5565b8095505050505050919050565b612586612b39565b6125c383836020604051908101604052806000815250602060405190810160405280600081525060206040519081016040528060008152506126bb565b905092915050565b6000600a7f010000000000000000000000000000000000000000000000000000000000000002827effffffffffffffffffffffffffffffffffffffffffffffffffffffffffffff1916101561266a576030827f01000000000000000000000000000000000000000000000000000000000000009004017f01000000000000000000000000000000000000000000000000000000000000000290506126b6565b6057827f01000000000000000000000000000000000000000000000000000000000000009004017f01000000000000000000000000000000000000000000000000000000000000000290505b919050565b6126c3612b39565b6126cb612b4d565b6126d3612b4d565b6126db612b4d565b6126e3612b4d565b6126eb612b4d565b6126f3612b39565b6126fb612b4d565b6000808e98508d97508c96508b95508a94508451865188518a518c51010101016040518059106127285750595b9080825280601f01601f1916602001820160405250935083925060009150600090505b88518110156127fe57888181518110151561276257fe5b9060200101517f010000000000000000000000000000000000000000000000000000000000000090047f01000000000000000000000000000000000000000000000000000000000000000283838060010194508151811015156127c157fe5b9060200101907effffffffffffffffffffffffffffffffffffffffffffffffffffffffffffff1916908160001a905350808060010191505061274b565b600090505b87518110156128b657878181518110151561281a57fe5b9060200101517f010000000000000000000000000000000000000000000000000000000000000090047f010000000000000000000000000000000000000000000000000000000000000002838380600101945081518110151561287957fe5b9060200101907effffffffffffffffffffffffffffffffffffffffffffffffffffffffffffff1916908160001a9053508080600101915050612803565b600090505b865181101561296e5786818151811015156128d257fe5b9060200101517f010000000000000000000000000000000000000000000000000000000000000090047f010000000000000000000000000000000000000000000000000000000000000002838380600101945081518110151561293157fe5b9060200101907effffffffffffffffffffffffffffffffffffffffffffffffffffffffffffff1916908160001a90535080806001019150506128bb565b600090505b8551811015612a2657858181518110151561298a57fe5b9060200101517f010000000000000000000000000000000000000000000000000000000000000090047f01000000000000000000000000000000000000000000000000000000000000000283838060010194508151811015156129e957fe5b9060200101907effffffffffffffffffffffffffffffffffffffffffffffffffffffffffffff1916908160001a9053508080600101915050612973565b600090505b8451811015612ade578481815181101515612a4257fe5b9060200101517f010000000000000000000000000000000000000000000000000000000000000090047f0100000000000000000000000000000000000000000000000000000000000000028383806001019450815181101515612aa157fe5b9060200101907effffffffffffffffffffffffffffffffffffffffffffffffffffffffffffff1916908160001a9053508080600101915050612a2b565b82995050505050505050505095945050505050565b815481835581811511612b1a57818360005260206000209182019101612b199190612b61565b5b505050565b604080519081016040528060008152602001600081525090565b602060405190810160405280600081525090565b602060405190810160405280600081525090565b612b8391905b80821115612b7f576000816000905550600101612b67565b5090565b905600a165627a7a72305820d9b6fee6547856dcf30b9e8a83e295e598fff0c6de2947f5ecd36dcc32864f030029",
  "source": "pragma solidity 0.4.21;\n\n\nimport \"../math/SafeMath.sol\";\nimport \"../token/FundRequestToken.sol\";\nimport \"../token/ERC20.sol\";\nimport \"./repository/FundRepository.sol\";\nimport \"./repository/ClaimRepository.sol\";\nimport \"../ownership/Owned.sol\";\nimport \"../token/ApproveAndCallFallback.sol\";\nimport \"../utils/strings.sol\";\nimport \"./validation/Precondition.sol\";\n\n\n/*\n * Main FundRequest Contract\n * Davy Van Roy\n * Quinten De Swaef\n */\ncontract FundRequestContract is Owned, ApproveAndCallFallBack {\n\n    using SafeMath for uint256;\n    using strings for *;\n\n    event Funded(address indexed from, bytes32 platform, string platformId, address token, uint256 value);\n\n    event Claimed(address indexed solverAddress, bytes32 platform, string platformId, string solver, address token, uint256 value);\n\n    //repositories\n    FundRepository public fundRepository;\n\n    ClaimRepository public claimRepository;\n\n    address public claimSignerAddress;\n\n    Precondition[] public preconditions;\n\n    modifier addressNotNull(address target) {\n        require(target != address(0));\n        _;\n    }\n\n    function FundRequestContract(address _fundRepository, address _claimRepository) public {\n        setFundRepository(_fundRepository);\n        setClaimRepository(_claimRepository);\n    }\n\n    //entrypoints\n    function fund(bytes32 _platform, string _platformId, address _token, uint256 _value) public returns (bool success) {\n        require(doFunding(_platform, _platformId, _token, _value, msg.sender));\n        return true;\n    }\n\n    function receiveApproval(address _from, uint _amount, address _token, bytes _data) public {\n        var sliced = string(_data).toSlice();\n        var platform = sliced.split(\"|AAC|\".toSlice());\n        var platformId = sliced.split(\"|AAC|\".toSlice());\n        require(doFunding(platform.toBytes32(), platformId.toString(), _token, _amount, _from));\n    }\n\n    function doFunding(bytes32 _platform, string _platformId, address _token, uint256 _value, address _funder) internal returns (bool success) {\n        for (uint idx = 0; idx < preconditions.length; idx++) {\n            if (address(preconditions[idx]) != address(0)) {\n                require(preconditions[idx].isValid(_platform, _platformId, _token, _value, _funder));\n            }\n        }\n        require(_value > 0);\n        require(ERC20(_token).transferFrom(_funder, address(this), _value));\n        fundRepository.updateFunders(_funder, _platform, _platformId);\n        fundRepository.updateBalances(_funder, _platform, _platformId, _token, _value);\n        Funded(_funder, _platform, _platformId, _token, _value);\n        return true;\n    }\n\n    function claim(bytes32 platform, string platformId, string solver, address solverAddress, bytes32 r, bytes32 s, uint8 v) public returns (bool) {\n        require(validClaim(platform, platformId, solver, solverAddress, r, s, v));\n        uint256 tokenCount = fundRepository.getFundedTokenCount(platform, platformId);\n        for (uint i = 0; i < tokenCount; i++) {\n            address token = fundRepository.getFundedTokensByIndex(platform, platformId, i);\n            uint256 tokenAmount = fundRepository.claimToken(platform, platformId, token);\n            require(ERC20(token).transfer(solverAddress, tokenAmount));\n            require(claimRepository.addClaim(solverAddress, platform, platformId, solver, token, tokenAmount));\n            Claimed(solverAddress, platform, platformId, solver, token, tokenAmount);\n        }\n        require(fundRepository.finishResolveFund(platform, platformId));\n        return true;\n    }\n\n    function validClaim(bytes32 platform, string platformId, string solver, address solverAddress, bytes32 r, bytes32 s, uint8 v) internal view returns (bool) {\n        var h = keccak256(createClaimMsg(platform, platformId, solver, solverAddress));\n        address signerAddress = ecrecover(h, v, r, s);\n        return claimSignerAddress == signerAddress;\n    }\n\n    function createClaimMsg(bytes32 platform, string platformId, string solver, address solverAddress) internal pure returns (string) {\n        return strings.bytes32ToString(platform)\n        .strConcat(prependUnderscore(platformId))\n        .strConcat(prependUnderscore(solver))\n        .strConcat(prependUnderscore(strings.addressToString(solverAddress)));\n    }\n\n    function addPrecondition(address _precondition) public onlyOwner {\n        preconditions.push(Precondition(_precondition));\n    }\n\n    function removePrecondition(uint _index) public onlyOwner {\n        delete preconditions[_index];\n    }\n\n    function prependUnderscore(string str) internal pure returns (string) {\n        return \"_\".strConcat(str);\n    }\n\n    function setFundRepository(address _repositoryAddress) public onlyOwner {\n        fundRepository = FundRepository(_repositoryAddress);\n    }\n\n    function setClaimRepository(address _claimRepository) public onlyOwner {\n        claimRepository = ClaimRepository(_claimRepository);\n    }\n\n    function setClaimSignerAddress(address _claimSignerAddress) addressNotNull(_claimSignerAddress) public onlyOwner {\n        claimSignerAddress = _claimSignerAddress;\n    }\n\n    function() public {\n        // dont receive ether via fallback\n    }\n}",
  "sourcePath": "/Users/QuintenDes/FundRequest/contracts/contracts/platform/FundRequestContract.sol",
  "compiler": {
    "name": "solc",
    "version": "0.4.21+commit.dfe3193c.Emscripten.clang"
  },
  "schemaVersion": "2.0.0",
  "updatedAt": "2018-04-05T08:55:09.108Z"
}