{
  "contractName": "FundRequestTokenGeneration",
  "abi": [
    {
      "constant": true,
      "inputs": [],
      "name": "maxCap",
      "outputs": [
        {
          "name": "",
          "type": "uint256"
        }
      ],
      "payable": false,
      "stateMutability": "view",
      "type": "function"
    },
    {
      "constant": true,
      "inputs": [],
      "name": "rate",
      "outputs": [
        {
          "name": "",
          "type": "uint256"
        }
      ],
      "payable": false,
      "stateMutability": "view",
      "type": "function"
    },
    {
      "constant": true,
      "inputs": [],
      "name": "tokensaleWallet",
      "outputs": [
        {
          "name": "",
          "type": "address"
        }
      ],
      "payable": false,
      "stateMutability": "view",
      "type": "function"
    },
    {
      "constant": false,
      "inputs": [],
      "name": "unpause",
      "outputs": [],
      "payable": false,
      "stateMutability": "nonpayable",
      "type": "function"
    },
    {
      "constant": true,
      "inputs": [
        {
          "name": "",
          "type": "uint256"
        }
      ],
      "name": "allowedCountries",
      "outputs": [
        {
          "name": "",
          "type": "bool"
        }
      ],
      "payable": false,
      "stateMutability": "view",
      "type": "function"
    },
    {
      "constant": true,
      "inputs": [],
      "name": "tokenContract",
      "outputs": [
        {
          "name": "",
          "type": "address"
        }
      ],
      "payable": false,
      "stateMutability": "view",
      "type": "function"
    },
    {
      "constant": true,
      "inputs": [],
      "name": "paused",
      "outputs": [
        {
          "name": "",
          "type": "bool"
        }
      ],
      "payable": false,
      "stateMutability": "view",
      "type": "function"
    },
    {
      "constant": false,
      "inputs": [],
      "name": "pause",
      "outputs": [],
      "payable": false,
      "stateMutability": "nonpayable",
      "type": "function"
    },
    {
      "constant": true,
      "inputs": [],
      "name": "personalCapActive",
      "outputs": [
        {
          "name": "",
          "type": "bool"
        }
      ],
      "payable": false,
      "stateMutability": "view",
      "type": "function"
    },
    {
      "constant": true,
      "inputs": [],
      "name": "owner",
      "outputs": [
        {
          "name": "",
          "type": "address"
        }
      ],
      "payable": false,
      "stateMutability": "view",
      "type": "function"
    },
    {
      "constant": true,
      "inputs": [],
      "name": "founderWallet",
      "outputs": [
        {
          "name": "",
          "type": "address"
        }
      ],
      "payable": false,
      "stateMutability": "view",
      "type": "function"
    },
    {
      "constant": false,
      "inputs": [
        {
          "name": "_newOwner",
          "type": "address"
        }
      ],
      "name": "changeOwner",
      "outputs": [],
      "payable": false,
      "stateMutability": "nonpayable",
      "type": "function"
    },
    {
      "constant": true,
      "inputs": [],
      "name": "personalCap",
      "outputs": [
        {
          "name": "",
          "type": "uint256"
        }
      ],
      "payable": false,
      "stateMutability": "view",
      "type": "function"
    },
    {
      "constant": true,
      "inputs": [
        {
          "name": "",
          "type": "address"
        }
      ],
      "name": "allowed",
      "outputs": [
        {
          "name": "",
          "type": "uint8"
        }
      ],
      "payable": false,
      "stateMutability": "view",
      "type": "function"
    },
    {
      "constant": true,
      "inputs": [],
      "name": "totalCollected",
      "outputs": [
        {
          "name": "",
          "type": "uint256"
        }
      ],
      "payable": false,
      "stateMutability": "view",
      "type": "function"
    },
    {
      "constant": true,
      "inputs": [
        {
          "name": "",
          "type": "address"
        }
      ],
      "name": "deposits",
      "outputs": [
        {
          "name": "",
          "type": "uint256"
        }
      ],
      "payable": false,
      "stateMutability": "view",
      "type": "function"
    },
    {
      "inputs": [
        {
          "name": "_tokenAddress",
          "type": "address"
        },
        {
          "name": "_founderWallet",
          "type": "address"
        },
        {
          "name": "_tokensaleWallet",
          "type": "address"
        },
        {
          "name": "_rate",
          "type": "uint256"
        },
        {
          "name": "_maxCap",
          "type": "uint256"
        },
        {
          "name": "_personalCap",
          "type": "uint256"
        }
      ],
      "payable": false,
      "stateMutability": "nonpayable",
      "type": "constructor"
    },
    {
      "payable": true,
      "stateMutability": "payable",
      "type": "fallback"
    },
    {
      "anonymous": false,
      "inputs": [
        {
          "indexed": true,
          "name": "_beneficiary",
          "type": "address"
        },
        {
          "indexed": false,
          "name": "_weiAmount",
          "type": "uint256"
        },
        {
          "indexed": false,
          "name": "_tokenAmount",
          "type": "uint256"
        },
        {
          "indexed": false,
          "name": "_personalCapActive",
          "type": "bool"
        }
      ],
      "name": "Paid",
      "type": "event"
    },
    {
      "anonymous": false,
      "inputs": [],
      "name": "Pause",
      "type": "event"
    },
    {
      "anonymous": false,
      "inputs": [],
      "name": "Unpause",
      "type": "event"
    },
    {
      "constant": false,
      "inputs": [
        {
          "name": "_owner",
          "type": "address"
        }
      ],
      "name": "proxyPayment",
      "outputs": [
        {
          "name": "",
          "type": "bool"
        }
      ],
      "payable": true,
      "stateMutability": "payable",
      "type": "function"
    },
    {
      "constant": false,
      "inputs": [
        {
          "name": "beneficiary",
          "type": "address"
        },
        {
          "name": "tokensSold",
          "type": "uint256"
        }
      ],
      "name": "allocateTokens",
      "outputs": [],
      "payable": false,
      "stateMutability": "nonpayable",
      "type": "function"
    },
    {
      "constant": false,
      "inputs": [],
      "name": "finalizeTokenSale",
      "outputs": [],
      "payable": false,
      "stateMutability": "nonpayable",
      "type": "function"
    },
    {
      "constant": false,
      "inputs": [
        {
          "name": "beneficiary",
          "type": "address"
        },
        {
          "name": "_country",
          "type": "uint8"
        }
      ],
      "name": "allow",
      "outputs": [],
      "payable": false,
      "stateMutability": "nonpayable",
      "type": "function"
    },
    {
      "constant": false,
      "inputs": [
        {
          "name": "_beneficiaries",
          "type": "address[]"
        },
        {
          "name": "_country",
          "type": "uint8"
        }
      ],
      "name": "allowMultiple",
      "outputs": [],
      "payable": false,
      "stateMutability": "nonpayable",
      "type": "function"
    },
    {
      "constant": false,
      "inputs": [
        {
          "name": "_country",
          "type": "uint8"
        },
        {
          "name": "_allowed",
          "type": "bool"
        }
      ],
      "name": "allowCountry",
      "outputs": [],
      "payable": false,
      "stateMutability": "nonpayable",
      "type": "function"
    },
    {
      "constant": false,
      "inputs": [
        {
          "name": "_maxCap",
          "type": "uint256"
        }
      ],
      "name": "setMaxCap",
      "outputs": [],
      "payable": false,
      "stateMutability": "nonpayable",
      "type": "function"
    },
    {
      "constant": false,
      "inputs": [
        {
          "name": "_tokensaleWallet",
          "type": "address"
        }
      ],
      "name": "setTokensaleWallet",
      "outputs": [],
      "payable": false,
      "stateMutability": "nonpayable",
      "type": "function"
    },
    {
      "constant": false,
      "inputs": [
        {
          "name": "_founderWallet",
          "type": "address"
        }
      ],
      "name": "setFounderWallet",
      "outputs": [],
      "payable": false,
      "stateMutability": "nonpayable",
      "type": "function"
    },
    {
      "constant": false,
      "inputs": [
        {
          "name": "_capInWei",
          "type": "uint256"
        }
      ],
      "name": "setPersonalCap",
      "outputs": [],
      "payable": false,
      "stateMutability": "nonpayable",
      "type": "function"
    },
    {
      "constant": false,
      "inputs": [
        {
          "name": "_active",
          "type": "bool"
        }
      ],
      "name": "setPersonalCapActive",
      "outputs": [],
      "payable": false,
      "stateMutability": "nonpayable",
      "type": "function"
    },
    {
      "constant": false,
      "inputs": [
        {
          "name": "_token",
          "type": "address"
        },
        {
          "name": "_amount",
          "type": "uint256"
        }
      ],
      "name": "withdrawToken",
      "outputs": [],
      "payable": false,
      "stateMutability": "nonpayable",
      "type": "function"
    },
    {
      "constant": false,
      "inputs": [
        {
          "name": "_to",
          "type": "address"
        }
      ],
      "name": "withdraw",
      "outputs": [],
      "payable": false,
      "stateMutability": "nonpayable",
      "type": "function"
    },
    {
      "constant": false,
      "inputs": [
        {
          "name": "_from",
          "type": "address"
        },
        {
          "name": "_to",
          "type": "address"
        },
        {
          "name": "_amount",
          "type": "uint256"
        }
      ],
      "name": "onTransfer",
      "outputs": [
        {
          "name": "",
          "type": "bool"
        }
      ],
      "payable": false,
      "stateMutability": "nonpayable",
      "type": "function"
    },
    {
      "constant": false,
      "inputs": [
        {
          "name": "_owner",
          "type": "address"
        },
        {
          "name": "_spender",
          "type": "address"
        },
        {
          "name": "_amount",
          "type": "uint256"
        }
      ],
      "name": "onApprove",
      "outputs": [
        {
          "name": "",
          "type": "bool"
        }
      ],
      "payable": false,
      "stateMutability": "nonpayable",
      "type": "function"
    }
  ],
  "bytecode": "0x606060405260008060146101000a81548160ff0219169083151502179055506001600960006101000a81548160ff021916908315150217905550341561004457600080fd5b60405160c080611eff83398101604052808051906020019091908051906020019091908051906020019091908051906020019091908051906020019091908051906020019091905050336000806101000a81548173ffffffffffffffffffffffffffffffffffffffff021916908373ffffffffffffffffffffffffffffffffffffffff16021790555085600160006101000a81548173ffffffffffffffffffffffffffffffffffffffff021916908373ffffffffffffffffffffffffffffffffffffffff16021790555083600260006101000a81548173ffffffffffffffffffffffffffffffffffffffff021916908373ffffffffffffffffffffffffffffffffffffffff16021790555084600360006101000a81548173ffffffffffffffffffffffffffffffffffffffff021916908373ffffffffffffffffffffffffffffffffffffffff160217905550826004819055508160078190555080600a819055506001600b6000600160048111156101b857fe5b815260200190815260200160002060006101000a81548160ff0219169083151502179055506001600b6000600260048111156101f057fe5b815260200190815260200160002060006101000a81548160ff0219169083151502179055506001600b60006003600481111561022857fe5b815260200190815260200160002060006101000a81548160ff0219169083151502179055506001600b600060048081111561025f57fe5b815260200190815260200160002060006101000a81548160ff021916908315150217905550505050505050611c66806102996000396000f30060606040526004361061018b576000357c0100000000000000000000000000000000000000000000000000000000900463ffffffff16806304b57191146101b257806323548b8b146101f75780632c4e722e1461022057806331bf0667146102495780633f4ba83a1461029e57806342181b8e146102b35780634a393149146102ee57806351cff8d91461036757806355a373d6146103a05780635c975abb146103f5578063763265de146104225780637693488b146104455780638456cb591461045a57806386ce02851461046f57806386d6eaa2146104b15780638a34396a146104d65780638da5cb5b146105035780639e281a9814610558578063a23d3c351461059a578063a6f9dae1146105ef578063b206979614610628578063c16ae1e014610659578063c7c2aee314610692578063cee36053146106bb578063d63a8e11146106f4578063d80b771b1461074f578063da682aeb146107b5578063e29eb8361461082e578063f48c305414610857578063f760f2281461089d578063fc7e286d146108c0575b600060149054906101000a900460ff161515156101a757600080fd5b6101b03361090d565b005b34156101bd57600080fd5b6101f5600480803573ffffffffffffffffffffffffffffffffffffffff1690602001909190803560ff16906020019091905050610abe565b005b341561020257600080fd5b61020a610b7d565b6040518082815260200191505060405180910390f35b341561022b57600080fd5b610233610b83565b6040518082815260200191505060405180910390f35b341561025457600080fd5b61025c610b89565b604051808273ffffffffffffffffffffffffffffffffffffffff1673ffffffffffffffffffffffffffffffffffffffff16815260200191505060405180910390f35b34156102a957600080fd5b6102b1610baf565b005b34156102be57600080fd5b6102d46004808035906020019091905050610c6d565b604051808215151515815260200191505060405180910390f35b34156102f957600080fd5b61034d600480803573ffffffffffffffffffffffffffffffffffffffff1690602001909190803573ffffffffffffffffffffffffffffffffffffffff16906020019091908035906020019091905050610c8d565b604051808215151515815260200191505060405180910390f35b341561037257600080fd5b61039e600480803573ffffffffffffffffffffffffffffffffffffffff16906020019091905050610c9a565b005b34156103ab57600080fd5b6103b3610d4f565b604051808273ffffffffffffffffffffffffffffffffffffffff1673ffffffffffffffffffffffffffffffffffffffff16815260200191505060405180910390f35b341561040057600080fd5b610408610d75565b604051808215151515815260200191505060405180910390f35b341561042d57600080fd5b6104436004808035906020019091905050610d88565b005b341561045057600080fd5b610458610ded565b005b341561046557600080fd5b61046d610f43565b005b341561047a57600080fd5b6104af600480803573ffffffffffffffffffffffffffffffffffffffff16906020019091908035906020019091905050611003565b005b34156104bc57600080fd5b6104d46004808035151590602001909190505061106c565b005b34156104e157600080fd5b6104e96110e4565b604051808215151515815260200191505060405180910390f35b341561050e57600080fd5b6105166110f7565b604051808273ffffffffffffffffffffffffffffffffffffffff1673ffffffffffffffffffffffffffffffffffffffff16815260200191505060405180910390f35b341561056357600080fd5b610598600480803573ffffffffffffffffffffffffffffffffffffffff1690602001909190803590602001909190505061111c565b005b34156105a557600080fd5b6105ad61126d565b604051808273ffffffffffffffffffffffffffffffffffffffff1673ffffffffffffffffffffffffffffffffffffffff16815260200191505060405180910390f35b34156105fa57600080fd5b610626600480803573ffffffffffffffffffffffffffffffffffffffff16906020019091905050611293565b005b341561063357600080fd5b610657600480803560ff169060200190919080351515906020019091905050611331565b005b341561066457600080fd5b610690600480803573ffffffffffffffffffffffffffffffffffffffff169060200190919050506113e0565b005b341561069d57600080fd5b6106a561147f565b6040518082815260200191505060405180910390f35b34156106c657600080fd5b6106f2600480803573ffffffffffffffffffffffffffffffffffffffff16906020019091905050611485565b005b34156106ff57600080fd5b61072b600480803573ffffffffffffffffffffffffffffffffffffffff16906020019091905050611524565b6040518082600481111561073b57fe5b60ff16815260200191505060405180910390f35b341561075a57600080fd5b6107b360048080359060200190820180359060200190808060200260200160405190810160405280939291908181526020018383602002808284378201915050505050509190803560ff16906020019091905050611544565b005b34156107c057600080fd5b610814600480803573ffffffffffffffffffffffffffffffffffffffff1690602001909190803573ffffffffffffffffffffffffffffffffffffffff169060200190919080359060200190919050506115e2565b604051808215151515815260200191505060405180910390f35b341561083957600080fd5b6108416115ef565b6040518082815260200191505060405180910390f35b610883600480803573ffffffffffffffffffffffffffffffffffffffff169060200190919050506115f5565b604051808215151515815260200191505060405180910390f35b34156108a857600080fd5b6108be6004808035906020019091905050611624565b005b34156108cb57600080fd5b6108f7600480803573ffffffffffffffffffffffffffffffffffffffff16906020019091905050611689565b6040518082815260200191505060405180910390f35b60008060008060149054906101000a900460ff1615151561092d57600080fd5b610936846116a1565b151561094157600080fd5b610949611844565b151561095457600080fd5b61095d84611865565b151561096857600080fd5b349250610980836008546118e490919063ffffffff16565b91506109976004548461190290919063ffffffff16565b9050816008819055506109f234600560008773ffffffffffffffffffffffffffffffffffffffff1673ffffffffffffffffffffffffffffffffffffffff168152602001908152602001600020546118e490919063ffffffff16565b600560008673ffffffffffffffffffffffffffffffffffffffff1673ffffffffffffffffffffffffffffffffffffffff16815260200190815260200160002081905550610a3f8482611935565b8373ffffffffffffffffffffffffffffffffffffffff167f470999142a1945479a5791432af86a6f5733ae37426ce58e11168aa9474263cd8483600960009054906101000a900460ff166040518084815260200183815260200182151515158152602001935050505060405180910390a2610ab8611a91565b50505050565b6000809054906101000a900473ffffffffffffffffffffffffffffffffffffffff1673ffffffffffffffffffffffffffffffffffffffff163373ffffffffffffffffffffffffffffffffffffffff16141515610b1957600080fd5b80600660008473ffffffffffffffffffffffffffffffffffffffff1673ffffffffffffffffffffffffffffffffffffffff16815260200190815260200160002060006101000a81548160ff02191690836004811115610b7457fe5b02179055505050565b60075481565b60045481565b600260009054906101000a900473ffffffffffffffffffffffffffffffffffffffff1681565b6000809054906101000a900473ffffffffffffffffffffffffffffffffffffffff1673ffffffffffffffffffffffffffffffffffffffff163373ffffffffffffffffffffffffffffffffffffffff16141515610c0a57600080fd5b600060149054906101000a900460ff161515610c2557600080fd5b60008060146101000a81548160ff0219169083151502179055507f7805862f689e2f13df9f062ff482ad3ad112aca9e0847911ed832e158c525b3360405160405180910390a1565b600b6020528060005260406000206000915054906101000a900460ff1681565b6000600190509392505050565b6000809054906101000a900473ffffffffffffffffffffffffffffffffffffffff1673ffffffffffffffffffffffffffffffffffffffff163373ffffffffffffffffffffffffffffffffffffffff16141515610cf557600080fd5b8073ffffffffffffffffffffffffffffffffffffffff166108fc3073ffffffffffffffffffffffffffffffffffffffff16319081150290604051600060405180830381858888f193505050501515610d4c57600080fd5b50565b600160009054906101000a900473ffffffffffffffffffffffffffffffffffffffff1681565b600060149054906101000a900460ff1681565b6000809054906101000a900473ffffffffffffffffffffffffffffffffffffffff1673ffffffffffffffffffffffffffffffffffffffff163373ffffffffffffffffffffffffffffffffffffffff16141515610de357600080fd5b8060078190555050565b6000809054906101000a900473ffffffffffffffffffffffffffffffffffffffff1673ffffffffffffffffffffffffffffffffffffffff163373ffffffffffffffffffffffffffffffffffffffff16141515610e4857600080fd5b610e50610f43565b600160009054906101000a900473ffffffffffffffffffffffffffffffffffffffff1673ffffffffffffffffffffffffffffffffffffffff16633cebb8236000809054906101000a900473ffffffffffffffffffffffffffffffffffffffff166040518263ffffffff167c0100000000000000000000000000000000000000000000000000000000028152600401808273ffffffffffffffffffffffffffffffffffffffff1673ffffffffffffffffffffffffffffffffffffffff168152602001915050600060405180830381600087803b1515610f2d57600080fd5b6102c65a03f11515610f3e57600080fd5b505050565b6000809054906101000a900473ffffffffffffffffffffffffffffffffffffffff1673ffffffffffffffffffffffffffffffffffffffff163373ffffffffffffffffffffffffffffffffffffffff16141515610f9e57600080fd5b600060149054906101000a900460ff16151515610fba57600080fd5b6001600060146101000a81548160ff0219169083151502179055507f6985a02210a168e66602d3235cb6db0e70f92b3ba4d376a33c0f3d9434bff62560405160405180910390a1565b6000809054906101000a900473ffffffffffffffffffffffffffffffffffffffff1673ffffffffffffffffffffffffffffffffffffffff163373ffffffffffffffffffffffffffffffffffffffff1614151561105e57600080fd5b6110688282611935565b5050565b6000809054906101000a900473ffffffffffffffffffffffffffffffffffffffff1673ffffffffffffffffffffffffffffffffffffffff163373ffffffffffffffffffffffffffffffffffffffff161415156110c757600080fd5b80600960006101000a81548160ff02191690831515021790555050565b600960009054906101000a900460ff1681565b6000809054906101000a900473ffffffffffffffffffffffffffffffffffffffff1681565b6000809054906101000a900473ffffffffffffffffffffffffffffffffffffffff1673ffffffffffffffffffffffffffffffffffffffff163373ffffffffffffffffffffffffffffffffffffffff1614151561117757600080fd5b8173ffffffffffffffffffffffffffffffffffffffff1663a9059cbb6000809054906101000a900473ffffffffffffffffffffffffffffffffffffffff16836000604051602001526040518363ffffffff167c0100000000000000000000000000000000000000000000000000000000028152600401808373ffffffffffffffffffffffffffffffffffffffff1673ffffffffffffffffffffffffffffffffffffffff16815260200182815260200192505050602060405180830381600087803b151561124357600080fd5b6102c65a03f1151561125457600080fd5b50505060405180519050151561126957600080fd5b5050565b600360009054906101000a900473ffffffffffffffffffffffffffffffffffffffff1681565b6000809054906101000a900473ffffffffffffffffffffffffffffffffffffffff1673ffffffffffffffffffffffffffffffffffffffff163373ffffffffffffffffffffffffffffffffffffffff161415156112ee57600080fd5b806000806101000a81548173ffffffffffffffffffffffffffffffffffffffff021916908373ffffffffffffffffffffffffffffffffffffffff16021790555050565b6000809054906101000a900473ffffffffffffffffffffffffffffffffffffffff1673ffffffffffffffffffffffffffffffffffffffff163373ffffffffffffffffffffffffffffffffffffffff1614151561138c57600080fd5b600082600481111561139a57fe5b1115156113a657600080fd5b80600b60008460048111156113b757fe5b815260200190815260200160002060006101000a81548160ff0219169083151502179055505050565b6000809054906101000a900473ffffffffffffffffffffffffffffffffffffffff1673ffffffffffffffffffffffffffffffffffffffff163373ffffffffffffffffffffffffffffffffffffffff1614151561143b57600080fd5b80600260006101000a81548173ffffffffffffffffffffffffffffffffffffffff021916908373ffffffffffffffffffffffffffffffffffffffff16021790555050565b600a5481565b6000809054906101000a900473ffffffffffffffffffffffffffffffffffffffff1673ffffffffffffffffffffffffffffffffffffffff163373ffffffffffffffffffffffffffffffffffffffff161415156114e057600080fd5b80600360006101000a81548173ffffffffffffffffffffffffffffffffffffffff021916908373ffffffffffffffffffffffffffffffffffffffff16021790555050565b60066020528060005260406000206000915054906101000a900460ff1681565b60008060009054906101000a900473ffffffffffffffffffffffffffffffffffffffff1673ffffffffffffffffffffffffffffffffffffffff163373ffffffffffffffffffffffffffffffffffffffff161415156115a157600080fd5b600090505b82518110156115dd576115d083828151811015156115c057fe5b9060200190602002015183610abe565b80806001019150506115a6565b505050565b6000600190509392505050565b60085481565b60008060149054906101000a900460ff1615151561161257600080fd5b61161b8261090d565b60019050919050565b6000809054906101000a900473ffffffffffffffffffffffffffffffffffffffff1673ffffffffffffffffffffffffffffffffffffffff163373ffffffffffffffffffffffffffffffffffffffff1614151561167f57600080fd5b80600a8190555050565b60056020528060005260406000206000915090505481565b6000806000600160009054906101000a900473ffffffffffffffffffffffffffffffffffffffff1673ffffffffffffffffffffffffffffffffffffffff1663f77c47916000604051602001526040518163ffffffff167c0100000000000000000000000000000000000000000000000000000000028152600401602060405180830381600087803b151561173457600080fd5b6102c65a03f1151561174557600080fd5b5050506040518051905073ffffffffffffffffffffffffffffffffffffffff161415151561177257600080fd5b662386f26fc10000341015151561178857600080fd5b600660008473ffffffffffffffffffffffffffffffffffffffff1673ffffffffffffffffffffffffffffffffffffffff16815260200190815260200160002060009054906101000a900460ff169050600060048111156117e457fe5b8160048111156117f057fe5b1115156117fc57600080fd5b60011515600b600083600481111561181057fe5b815260200190815260200160002060009054906101000a900460ff16151514151561183a57600080fd5b6001915050919050565b600060075461185e346008546118e490919063ffffffff16565b1115905090565b6000600960009054906101000a900460ff16156118da57600a546118d134600560008673ffffffffffffffffffffffffffffffffffffffff1673ffffffffffffffffffffffffffffffffffffffff168152602001908152602001600020546118e490919063ffffffff16565b111590506118df565b600190505b919050565b60008082840190508381101515156118f857fe5b8091505092915050565b60008082840290506000841480611923575082848281151561192057fe5b04145b151561192b57fe5b8091505092915050565b600061195e602861195060648561190290919063ffffffff16565b611af590919063ffffffff16565b9050600160009054906101000a900473ffffffffffffffffffffffffffffffffffffffff1673ffffffffffffffffffffffffffffffffffffffff1663827f32c084846000604051602001526040518363ffffffff167c0100000000000000000000000000000000000000000000000000000000028152600401808373ffffffffffffffffffffffffffffffffffffffff1673ffffffffffffffffffffffffffffffffffffffff16815260200182815260200192505050602060405180830381600087803b1515611a2d57600080fd5b6102c65a03f11515611a3e57600080fd5b505050604051805190501515611a5357600080fd5b611a8181600260009054906101000a900473ffffffffffffffffffffffffffffffffffffffff16603c611b10565b1515611a8c57600080fd5b505050565b600360009054906101000a900473ffffffffffffffffffffffffffffffffffffffff1673ffffffffffffffffffffffffffffffffffffffff166108fc349081150290604051600060405180830381858888f193505050501515611af357600080fd5b565b6000808284811515611b0357fe5b0490508091505092915050565b600080611b3983611b2b606488611af590919063ffffffff16565b61190290919063ffffffff16565b9050600160009054906101000a900473ffffffffffffffffffffffffffffffffffffffff1673ffffffffffffffffffffffffffffffffffffffff1663827f32c085836000604051602001526040518363ffffffff167c0100000000000000000000000000000000000000000000000000000000028152600401808373ffffffffffffffffffffffffffffffffffffffff1673ffffffffffffffffffffffffffffffffffffffff16815260200182815260200192505050602060405180830381600087803b1515611c0857600080fd5b6102c65a03f11515611c1957600080fd5b505050604051805190501515611c2e57600080fd5b600191505093925050505600a165627a7a723058202167cce2c2030d4c67dc5699e640b138520dac97c4d0c6659e85cf64f4a506960029",
  "source": "pragma solidity ^0.4.18;\n\n// FundRequest Token Sale\n//\n// @authors:\n// Davy Van Roy <davy.van.roy@gmail.com>\n// Quinten De Swaef <quinten.de.swaef@gmail.com>\n//\n// By sending ETH to this contract, you agree to the terms and conditions for participating in the FundRequest Token Sale:\n// https://sale.fundrequest.io/assets/Terms-Conditions.pdf\n//\n// Security audit performed by LeastAuthority:\n// https://github.com/FundRequest/audit-reports/raw/master/2018-02-06 - Least Authority - ICO Contracts Audit Report.pdf\n\n\nimport \"../math/SafeMath.sol\";\nimport \"../pause/Pausable.sol\";\nimport \"../token/MiniMeToken.sol\";\nimport \"../control/TokenController.sol\";\n\n\ncontract FundRequestTokenGeneration is Pausable, TokenController {\n    using SafeMath for uint256;\n\n    MiniMeToken public tokenContract;\n\n    address public tokensaleWallet;\n\n    address public founderWallet;\n\n    uint public rate;\n\n    mapping (address => uint) public deposits;\n\n    mapping (address => Countries) public allowed;\n\n    uint public maxCap;         // In wei\n    uint256 public totalCollected;         // In wei\n\n    // personal caps and activations\n    bool public personalCapActive = true;\n\n    uint256 public personalCap;\n\n    //country whitelisting\n    enum Countries {NOT_WHITELISTED, CHINA, KOREA, USA, OTHER}\n    mapping (uint => bool) public allowedCountries;\n\n    //events\n    event Paid(address indexed _beneficiary, uint256 _weiAmount, uint256 _tokenAmount, bool _personalCapActive);\n\n    function FundRequestTokenGeneration(\n    address _tokenAddress,\n    address _founderWallet,\n    address _tokensaleWallet,\n    uint _rate,\n    uint _maxCap,\n    uint256 _personalCap) public\n    {\n        tokenContract = MiniMeToken(_tokenAddress);\n        tokensaleWallet = _tokensaleWallet;\n        founderWallet = _founderWallet;\n\n        rate = _rate;\n        maxCap = _maxCap;\n        personalCap = _personalCap;\n\n        allowedCountries[uint(Countries.CHINA)] = true;\n        allowedCountries[uint(Countries.KOREA)] = true;\n        allowedCountries[uint(Countries.USA)] = true;\n        allowedCountries[uint(Countries.OTHER)] = true;\n    }\n\n    function() public payable whenNotPaused {\n        doPayment(msg.sender);\n    }\n\n    /// @notice `proxyPayment()` allows the caller to send ether to the Campaign and\n    /// have the tokens created in an address of their choosing\n    /// @param _owner The address that will hold the newly created tokens\n\n    function proxyPayment(address _owner) public payable whenNotPaused returns (bool) {\n        doPayment(_owner);\n        return true;\n    }\n\n    function doPayment(address beneficiary) whenNotPaused internal {\n        require(validPurchase(beneficiary));\n        require(maxCapNotReached());\n        require(personalCapNotReached(beneficiary));\n        uint256 weiAmount = msg.value;\n        uint256 updatedWeiRaised = totalCollected.add(weiAmount);\n        uint256 tokensInWei = weiAmount.mul(rate);\n        totalCollected = updatedWeiRaised;\n        deposits[beneficiary] = deposits[beneficiary].add(msg.value);\n        distributeTokens(beneficiary, tokensInWei);\n        Paid(beneficiary, weiAmount, tokensInWei, personalCapActive);\n        forwardFunds();\n        return;\n    }\n\n    function allocateTokens(address beneficiary, uint256 tokensSold) public onlyOwner {\n        distributeTokens(beneficiary, tokensSold);\n    }\n\n    function finalizeTokenSale() public onlyOwner {\n        pause();\n        tokenContract.changeController(owner);\n    }\n\n    function distributeTokens(address beneficiary, uint256 tokensSold) internal {\n        uint256 totalTokensInWei = tokensSold.mul(100).div(40);\n        require(tokenContract.generateTokens(beneficiary, tokensSold));\n        require(generateExtraTokens(totalTokensInWei, tokensaleWallet, 60));\n    }\n\n    function validPurchase(address beneficiary) internal view returns (bool) {\n        require(tokenContract.controller() != 0);\n        require(msg.value >= 0.01 ether);\n\n        Countries beneficiaryCountry = allowed[beneficiary];\n\n        /* the country needs to > 0 (whitelisted) */\n        require(uint(beneficiaryCountry) > uint(Countries.NOT_WHITELISTED));\n\n        /* country needs to be allowed */\n        require(allowedCountries[uint(beneficiaryCountry)] == true);\n        return true;\n    }\n\n    function generateExtraTokens(uint256 _total, address _owner, uint _pct) internal returns (bool) {\n        uint256 tokensInWei = _total.div(100).mul(_pct);\n        require(tokenContract.generateTokens(_owner, tokensInWei));\n        return true;\n    }\n\n    function allow(address beneficiary, Countries _country) public onlyOwner {\n        allowed[beneficiary] = _country;\n    }\n\n    function allowMultiple(address[] _beneficiaries, Countries _country) public onlyOwner {\n        for (uint b = 0; b < _beneficiaries.length; b++) {\n            allow(_beneficiaries[b], _country);\n        }\n    }\n\n    function allowCountry(Countries _country, bool _allowed) public onlyOwner {\n        require(uint(_country) > 0);\n        allowedCountries[uint(_country)] = _allowed;\n    }\n\n    function maxCapNotReached() internal view returns (bool) {\n        return totalCollected.add(msg.value) <= maxCap;\n    }\n\n    function personalCapNotReached(address _beneficiary) internal view returns (bool) {\n        if (personalCapActive) {\n            return deposits[_beneficiary].add(msg.value) <= personalCap;\n        }\n        else {\n            return true;\n        }\n    }\n\n    function setMaxCap(uint _maxCap) public onlyOwner {\n        maxCap = _maxCap;\n    }\n\n    /* setters for wallets */\n    function setTokensaleWallet(address _tokensaleWallet) public onlyOwner {\n        tokensaleWallet = _tokensaleWallet;\n    }\n\n    function setFounderWallet(address _founderWallet) public onlyOwner {\n        founderWallet = _founderWallet;\n    }\n\n\n    function setPersonalCap(uint256 _capInWei) public onlyOwner {\n        personalCap = _capInWei;\n    }\n\n    function setPersonalCapActive(bool _active) public onlyOwner {\n        personalCapActive = _active;\n    }\n\n    function forwardFunds() internal {\n        founderWallet.transfer(msg.value);\n    }\n\n    /* fix for accidental token sending */\n    function withdrawToken(address _token, uint256 _amount) public onlyOwner {\n        require(MiniMeToken(_token).transfer(owner, _amount));\n    }\n\n    //incase something does a suicide and funds end up here, we need to be able to withdraw them\n    function withdraw(address _to) public onlyOwner {\n        _to.transfer(this.balance);\n    }\n\n    function onTransfer(address _from, address _to, uint _amount) public returns (bool) {\n        return true;\n    }\n\n    function onApprove(address _owner, address _spender, uint _amount) public returns (bool) {\n        return true;\n    }\n}",
  "sourcePath": "/Users/QuintenDes/FundRequest/contracts/contracts/crowdsale/FundRequestTokenGeneration.sol",
  "compiler": {
    "name": "solc",
    "version": "0.4.19+commit.c4cbbb05.Emscripten.clang"
  },
  "schemaVersion": "1.0.1",
  "updatedAt": "2018-02-20T17:05:51.048Z"
}