{
  "contractName": "FundRepository",
  "abi": [
    {
      "constant": true,
      "inputs": [
        {
          "name": "",
          "type": "address"
        }
      ],
      "name": "totalBalance",
      "outputs": [
        {
          "name": "",
          "type": "uint256"
        }
      ],
      "payable": false,
      "stateMutability": "view",
      "type": "function"
    },
    {
      "constant": true,
      "inputs": [
        {
          "name": "",
          "type": "address"
        }
      ],
      "name": "callers",
      "outputs": [
        {
          "name": "",
          "type": "bool"
        }
      ],
      "payable": false,
      "stateMutability": "view",
      "type": "function"
    },
    {
      "constant": true,
      "inputs": [],
      "name": "owner",
      "outputs": [
        {
          "name": "",
          "type": "address"
        }
      ],
      "payable": false,
      "stateMutability": "view",
      "type": "function"
    },
    {
      "constant": true,
      "inputs": [],
      "name": "requestsFunded",
      "outputs": [
        {
          "name": "",
          "type": "uint256"
        }
      ],
      "payable": false,
      "stateMutability": "view",
      "type": "function"
    },
    {
      "constant": false,
      "inputs": [
        {
          "name": "_newOwner",
          "type": "address"
        }
      ],
      "name": "changeOwner",
      "outputs": [],
      "payable": false,
      "stateMutability": "nonpayable",
      "type": "function"
    },
    {
      "constant": true,
      "inputs": [
        {
          "name": "",
          "type": "address"
        }
      ],
      "name": "totalFunded",
      "outputs": [
        {
          "name": "",
          "type": "uint256"
        }
      ],
      "payable": false,
      "stateMutability": "view",
      "type": "function"
    },
    {
      "constant": true,
      "inputs": [],
      "name": "totalNumberOfFunders",
      "outputs": [
        {
          "name": "",
          "type": "uint256"
        }
      ],
      "payable": false,
      "stateMutability": "view",
      "type": "function"
    },
    {
      "inputs": [],
      "payable": false,
      "stateMutability": "nonpayable",
      "type": "constructor"
    },
    {
      "payable": false,
      "stateMutability": "nonpayable",
      "type": "fallback"
    },
    {
      "constant": false,
      "inputs": [
        {
          "name": "_from",
          "type": "address"
        },
        {
          "name": "_platform",
          "type": "bytes32"
        },
        {
          "name": "_platformId",
          "type": "string"
        }
      ],
      "name": "updateFunders",
      "outputs": [],
      "payable": false,
      "stateMutability": "nonpayable",
      "type": "function"
    },
    {
      "constant": false,
      "inputs": [
        {
          "name": "_from",
          "type": "address"
        },
        {
          "name": "_platform",
          "type": "bytes32"
        },
        {
          "name": "_platformId",
          "type": "string"
        },
        {
          "name": "_token",
          "type": "address"
        },
        {
          "name": "_value",
          "type": "uint256"
        }
      ],
      "name": "updateBalances",
      "outputs": [],
      "payable": false,
      "stateMutability": "nonpayable",
      "type": "function"
    },
    {
      "constant": false,
      "inputs": [
        {
          "name": "platform",
          "type": "bytes32"
        },
        {
          "name": "platformId",
          "type": "string"
        },
        {
          "name": "_token",
          "type": "address"
        }
      ],
      "name": "claimToken",
      "outputs": [
        {
          "name": "",
          "type": "uint256"
        }
      ],
      "payable": false,
      "stateMutability": "nonpayable",
      "type": "function"
    },
    {
      "constant": false,
      "inputs": [
        {
          "name": "platform",
          "type": "bytes32"
        },
        {
          "name": "platformId",
          "type": "string"
        }
      ],
      "name": "finishResolveFund",
      "outputs": [
        {
          "name": "",
          "type": "bool"
        }
      ],
      "payable": false,
      "stateMutability": "nonpayable",
      "type": "function"
    },
    {
      "constant": true,
      "inputs": [
        {
          "name": "_platform",
          "type": "bytes32"
        },
        {
          "name": "_platformId",
          "type": "string"
        },
        {
          "name": "_funder",
          "type": "address"
        },
        {
          "name": "_token",
          "type": "address"
        }
      ],
      "name": "getFundInfo",
      "outputs": [
        {
          "name": "",
          "type": "uint256"
        },
        {
          "name": "",
          "type": "uint256"
        },
        {
          "name": "",
          "type": "uint256"
        }
      ],
      "payable": false,
      "stateMutability": "view",
      "type": "function"
    },
    {
      "constant": true,
      "inputs": [
        {
          "name": "_platform",
          "type": "bytes32"
        },
        {
          "name": "_platformId",
          "type": "string"
        }
      ],
      "name": "getFundedTokenCount",
      "outputs": [
        {
          "name": "",
          "type": "uint256"
        }
      ],
      "payable": false,
      "stateMutability": "view",
      "type": "function"
    },
    {
      "constant": true,
      "inputs": [
        {
          "name": "_platform",
          "type": "bytes32"
        },
        {
          "name": "_platformId",
          "type": "string"
        },
        {
          "name": "_index",
          "type": "uint256"
        }
      ],
      "name": "getFundedTokensByIndex",
      "outputs": [
        {
          "name": "",
          "type": "address"
        }
      ],
      "payable": false,
      "stateMutability": "view",
      "type": "function"
    },
    {
      "constant": true,
      "inputs": [
        {
          "name": "_platform",
          "type": "bytes32"
        },
        {
          "name": "_platformId",
          "type": "string"
        }
      ],
      "name": "getFunderCount",
      "outputs": [
        {
          "name": "",
          "type": "uint256"
        }
      ],
      "payable": false,
      "stateMutability": "view",
      "type": "function"
    },
    {
      "constant": true,
      "inputs": [
        {
          "name": "_platform",
          "type": "bytes32"
        },
        {
          "name": "_platformId",
          "type": "string"
        },
        {
          "name": "_funder",
          "type": "address"
        },
        {
          "name": "_token",
          "type": "address"
        }
      ],
      "name": "amountFunded",
      "outputs": [
        {
          "name": "",
          "type": "uint256"
        }
      ],
      "payable": false,
      "stateMutability": "view",
      "type": "function"
    },
    {
      "constant": true,
      "inputs": [
        {
          "name": "_platform",
          "type": "bytes32"
        },
        {
          "name": "_platformId",
          "type": "string"
        },
        {
          "name": "_token",
          "type": "address"
        }
      ],
      "name": "balance",
      "outputs": [
        {
          "name": "",
          "type": "uint256"
        }
      ],
      "payable": false,
      "stateMutability": "view",
      "type": "function"
    },
    {
      "constant": false,
      "inputs": [
        {
          "name": "_caller",
          "type": "address"
        },
        {
          "name": "allowed",
          "type": "bool"
        }
      ],
      "name": "updateCaller",
      "outputs": [],
      "payable": false,
      "stateMutability": "nonpayable",
      "type": "function"
    }
  ],
  "bytecode": "0x6060604052341561000f57600080fd5b336000806101000a81548173ffffffffffffffffffffffffffffffffffffffff021916908373ffffffffffffffffffffffffffffffffffffffff1602179055506121478061005e6000396000f3006060604052600436106100fc576000357c0100000000000000000000000000000000000000000000000000000000900463ffffffff16806315f2e1bf1461010957806336e4f915146101875780633ac4aeeb146102245780633d725831146102e0578063474448c4146103935780636eacd398146104155780637bbf4a3f14610462578063844c7d95146104b35780638da5cb5b1461056457806391ff6baf146105b9578063956a2d03146105e25780639f819b131461067f578063a6f9dae114610708578063b4d168f714610741578063bc1c2c29146107bf578063c79681351461080c578063dfbed62314610835578063e82cc47f14610879575b341561010757600080fd5b005b341561011457600080fd5b61017160048080356000191690602001909190803590602001908201803590602001908080601f01602080910402602001604051908101604052809392919081815260200183838082843782019150505050505091905050610943565b6040518082815260200191505060405180910390f35b341561019257600080fd5b61020e60048080356000191690602001909190803590602001908201803590602001908080601f0160208091040260200160405190810160405280939291908181526020018383808284378201915050505050509190803573ffffffffffffffffffffffffffffffffffffffff169060200190919050506109d8565b6040518082815260200191505060405180910390f35b341561022f57600080fd5b6102ca60048080356000191690602001909190803590602001908201803590602001908080601f0160208091040260200160405190810160405280939291908181526020018383808284378201915050505050509190803573ffffffffffffffffffffffffffffffffffffffff1690602001909190803573ffffffffffffffffffffffffffffffffffffffff16906020019091905050610c6d565b6040518082815260200191505060405180910390f35b34156102eb57600080fd5b61035160048080356000191690602001909190803590602001908201803590602001908080601f01602080910402602001604051908101604052809392919081815260200183838082843782019150505050505091908035906020019091905050610d7e565b604051808273ffffffffffffffffffffffffffffffffffffffff1673ffffffffffffffffffffffffffffffffffffffff16815260200191505060405180910390f35b341561039e57600080fd5b6103fb60048080356000191690602001909190803590602001908201803590602001908080601f01602080910402602001604051908101604052809392919081815260200183838082843782019150505050505091905050610e49565b604051808215151515815260200191505060405180910390f35b341561042057600080fd5b61044c600480803573ffffffffffffffffffffffffffffffffffffffff16906020019091905050610f54565b6040518082815260200191505060405180910390f35b341561046d57600080fd5b610499600480803573ffffffffffffffffffffffffffffffffffffffff16906020019091905050610f6c565b604051808215151515815260200191505060405180910390f35b34156104be57600080fd5b610562600480803573ffffffffffffffffffffffffffffffffffffffff169060200190919080356000191690602001909190803590602001908201803590602001908080601f0160208091040260200160405190810160405280939291908181526020018383808284378201915050505050509190803573ffffffffffffffffffffffffffffffffffffffff16906020019091908035906020019091905050610f8c565b005b341561056f57600080fd5b610577611a43565b604051808273ffffffffffffffffffffffffffffffffffffffff1673ffffffffffffffffffffffffffffffffffffffff16815260200191505060405180910390f35b34156105c457600080fd5b6105cc611a68565b6040518082815260200191505060405180910390f35b34156105ed57600080fd5b61066960048080356000191690602001909190803590602001908201803590602001908080601f0160208091040260200160405190810160405280939291908181526020018383808284378201915050505050509190803573ffffffffffffffffffffffffffffffffffffffff16906020019091905050611a6e565b6040518082815260200191505060405180910390f35b341561068a57600080fd5b610706600480803573ffffffffffffffffffffffffffffffffffffffff169060200190919080356000191690602001909190803590602001908201803590602001908080601f01602080910402602001604051908101604052809392919081815260200183838082843782019150505050505091905050611b41565b005b341561071357600080fd5b61073f600480803573ffffffffffffffffffffffffffffffffffffffff16906020019091905050611e35565b005b341561074c57600080fd5b6107a960048080356000191690602001909190803590602001908201803590602001908080601f01602080910402602001604051908101604052809392919081815260200183838082843782019150505050505091905050611ed3565b6040518082815260200191505060405180910390f35b34156107ca57600080fd5b6107f6600480803573ffffffffffffffffffffffffffffffffffffffff16906020019091905050611f68565b6040518082815260200191505060405180910390f35b341561081757600080fd5b61081f611f80565b6040518082815260200191505060405180910390f35b341561084057600080fd5b610877600480803573ffffffffffffffffffffffffffffffffffffffff169060200190919080351515906020019091905050611f86565b005b341561088457600080fd5b61091f60048080356000191690602001909190803590602001908201803590602001908080601f0160208091040260200160405190810160405280939291908181526020018383808284378201915050505050509190803573ffffffffffffffffffffffffffffffffffffffff1690602001909190803573ffffffffffffffffffffffffffffffffffffffff1690602001909190505061203c565b60405180848152602001838152602001828152602001935050505060405180910390f35b6000600660008460001916600019168152602001908152602001600020826040518082805190602001908083835b6020831015156109965780518252602082019150602081019050602083039250610971565b6001836020036101000a038019825116818451168082178552505050505050905001915050908152602001604051809103902060000180549050905092915050565b600080600760003373ffffffffffffffffffffffffffffffffffffffff1673ffffffffffffffffffffffffffffffffffffffff16815260200190815260200160002060009054906101000a900460ff161515610a3357600080fd5b600660008660001916600019168152602001908152602001600020846040518082805190602001908083835b602083101515610a845780518252602082019150602081019050602083039250610a5f565b6001836020036101000a038019825116818451168082178552505050505050905001915050908152602001604051809103902060020160008473ffffffffffffffffffffffffffffffffffffffff1673ffffffffffffffffffffffffffffffffffffffff168152602001908152602001600020600101549050600660008660001916600019168152602001908152602001600020846040518082805190602001908083835b602083101515610b4e5780518252602082019150602081019050602083039250610b29565b6001836020036101000a038019825116818451168082178552505050505050905001915050908152602001604051809103902060020160008473ffffffffffffffffffffffffffffffffffffffff1673ffffffffffffffffffffffffffffffffffffffff168152602001908152602001600020600060018201600090555050610c1f81600560008673ffffffffffffffffffffffffffffffffffffffff1673ffffffffffffffffffffffffffffffffffffffff1681526020019081526020016000205461207290919063ffffffff16565b600560008573ffffffffffffffffffffffffffffffffffffffff1673ffffffffffffffffffffffffffffffffffffffff16815260200190815260200160002081905550809150509392505050565b6000600660008660001916600019168152602001908152602001600020846040518082805190602001908083835b602083101515610cc05780518252602082019150602081019050602083039250610c9b565b6001836020036101000a038019825116818451168082178552505050505050905001915050908152602001604051809103902060030160008473ffffffffffffffffffffffffffffffffffffffff1673ffffffffffffffffffffffffffffffffffffffff16815260200190815260200160002060000160008373ffffffffffffffffffffffffffffffffffffffff1673ffffffffffffffffffffffffffffffffffffffff168152602001908152602001600020549050949350505050565b6000600660008560001916600019168152602001908152602001600020836040518082805190602001908083835b602083101515610dd15780518252602082019150602081019050602083039250610dac565b6001836020036101000a038019825116818451168082178552505050505050905001915050908152602001604051809103902060010182815481101515610e1457fe5b906000526020600020900160009054906101000a900473ffffffffffffffffffffffffffffffffffffffff1690509392505050565b6000600760003373ffffffffffffffffffffffffffffffffffffffff1673ffffffffffffffffffffffffffffffffffffffff16815260200190815260200160002060009054906101000a900460ff161515610ea357600080fd5b600660008460001916600019168152602001908152602001600020826040518082805190602001908083835b602083101515610ef45780518252602082019150602081019050602083039250610ecf565b6001836020036101000a038019825116818451168082178552505050505050905001915050908152602001604051809103902060008082016000610f3891906120a9565b600182016000610f4891906120a9565b50506001905092915050565b60056020528060005260406000206000915090505481565b60076020528060005260406000206000915054906101000a900460ff1681565b600760003373ffffffffffffffffffffffffffffffffffffffff1673ffffffffffffffffffffffffffffffffffffffff16815260200190815260200160002060009054906101000a900460ff161515610fe457600080fd5b6000600660008660001916600019168152602001908152602001600020846040518082805190602001908083835b6020831015156110375780518252602082019150602081019050602083039250611012565b6001836020036101000a0380198251168184511680821785525050505050509050019150509081526020016040518091039020600101805490501115156110955761108e600160035461208b90919063ffffffff16565b6003819055505b6000600660008660001916600019168152602001908152602001600020846040518082805190602001908083835b6020831015156110e857805182526020820191506020810190506020830392506110c3565b6001836020036101000a038019825116818451168082178552505050505050905001915050908152602001604051809103902060020160008473ffffffffffffffffffffffffffffffffffffffff1673ffffffffffffffffffffffffffffffffffffffff1681526020019081526020016000206001015411151561124f57600660008560001916600019168152602001908152602001600020836040518082805190602001908083835b6020831015156111b75780518252602082019150602081019050602083039250611192565b6001836020036101000a038019825116818451168082178552505050505050905001915050908152602001604051809103902060010180548060010182816111ff91906120ca565b9160005260206000209001600084909190916101000a81548173ffffffffffffffffffffffffffffffffffffffff021916908373ffffffffffffffffffffffffffffffffffffffff160217905550505b61136681600660008760001916600019168152602001908152602001600020856040518082805190602001908083835b6020831015156112a4578051825260208201915060208101905060208303925061127f565b6001836020036101000a038019825116818451168082178552505050505050905001915050908152602001604051809103902060020160008573ffffffffffffffffffffffffffffffffffffffff1673ffffffffffffffffffffffffffffffffffffffff16815260200190815260200160002060000160008873ffffffffffffffffffffffffffffffffffffffff1673ffffffffffffffffffffffffffffffffffffffff1681526020019081526020016000205461208b90919063ffffffff16565b600660008660001916600019168152602001908152602001600020846040518082805190602001908083835b6020831015156113b75780518252602082019150602081019050602083039250611392565b6001836020036101000a038019825116818451168082178552505050505050905001915050908152602001604051809103902060020160008473ffffffffffffffffffffffffffffffffffffffff1673ffffffffffffffffffffffffffffffffffffffff16815260200190815260200160002060000160008773ffffffffffffffffffffffffffffffffffffffff1673ffffffffffffffffffffffffffffffffffffffff1681526020019081526020016000208190555061154881600660008760001916600019168152602001908152602001600020856040518082805190602001908083835b6020831015156114c3578051825260208201915060208101905060208303925061149e565b6001836020036101000a038019825116818451168082178552505050505050905001915050908152602001604051809103902060020160008573ffffffffffffffffffffffffffffffffffffffff1673ffffffffffffffffffffffffffffffffffffffff1681526020019081526020016000206001015461208b90919063ffffffff16565b600660008660001916600019168152602001908152602001600020846040518082805190602001908083835b6020831015156115995780518252602082019150602081019050602083039250611574565b6001836020036101000a038019825116818451168082178552505050505050905001915050908152602001604051809103902060020160008473ffffffffffffffffffffffffffffffffffffffff1673ffffffffffffffffffffffffffffffffffffffff1681526020019081526020016000206001018190555061172a81600660008760001916600019168152602001908152602001600020856040518082805190602001908083835b6020831015156116685780518252602082019150602081019050602083039250611643565b6001836020036101000a038019825116818451168082178552505050505050905001915050908152602001604051809103902060030160008873ffffffffffffffffffffffffffffffffffffffff1673ffffffffffffffffffffffffffffffffffffffff16815260200190815260200160002060000160008573ffffffffffffffffffffffffffffffffffffffff1673ffffffffffffffffffffffffffffffffffffffff1681526020019081526020016000205461208b90919063ffffffff16565b600660008660001916600019168152602001908152602001600020846040518082805190602001908083835b60208310151561177b5780518252602082019150602081019050602083039250611756565b6001836020036101000a038019825116818451168082178552505050505050905001915050908152602001604051809103902060030160008773ffffffffffffffffffffffffffffffffffffffff1673ffffffffffffffffffffffffffffffffffffffff16815260200190815260200160002060000160008473ffffffffffffffffffffffffffffffffffffffff1673ffffffffffffffffffffffffffffffffffffffff168152602001908152602001600020819055506001600660008660001916600019168152602001908152602001600020846040518082805190602001908083835b6020831015156118855780518252602082019150602081019050602083039250611860565b6001836020036101000a038019825116818451168082178552505050505050905001915050908152602001604051809103902060030160008773ffffffffffffffffffffffffffffffffffffffff1673ffffffffffffffffffffffffffffffffffffffff16815260200190815260200160002060010160006101000a81548160ff02191690831515021790555061196481600560008573ffffffffffffffffffffffffffffffffffffffff1673ffffffffffffffffffffffffffffffffffffffff1681526020019081526020016000205461208b90919063ffffffff16565b600560008473ffffffffffffffffffffffffffffffffffffffff1673ffffffffffffffffffffffffffffffffffffffff168152602001908152602001600020819055506119f981600260008573ffffffffffffffffffffffffffffffffffffffff1673ffffffffffffffffffffffffffffffffffffffff1681526020019081526020016000205461208b90919063ffffffff16565b600260008473ffffffffffffffffffffffffffffffffffffffff1673ffffffffffffffffffffffffffffffffffffffff168152602001908152602001600020819055505050505050565b6000809054906101000a900473ffffffffffffffffffffffffffffffffffffffff1681565b60035481565b6000600660008560001916600019168152602001908152602001600020836040518082805190602001908083835b602083101515611ac15780518252602082019150602081019050602083039250611a9c565b6001836020036101000a038019825116818451168082178552505050505050905001915050908152602001604051809103902060020160008373ffffffffffffffffffffffffffffffffffffffff1673ffffffffffffffffffffffffffffffffffffffff1681526020019081526020016000206001015490509392505050565b6000600760003373ffffffffffffffffffffffffffffffffffffffff1673ffffffffffffffffffffffffffffffffffffffff16815260200190815260200160002060009054906101000a900460ff161515611b9b57600080fd5b600660008460001916600019168152602001908152602001600020826040518082805190602001908083835b602083101515611bec5780518252602082019150602081019050602083039250611bc7565b6001836020036101000a038019825116818451168082178552505050505050905001915050908152602001604051809103902060030160008573ffffffffffffffffffffffffffffffffffffffff1673ffffffffffffffffffffffffffffffffffffffff16815260200190815260200160002060010160009054906101000a900460ff169050801515611d6257600660008460001916600019168152602001908152602001600020826040518082805190602001908083835b602083101515611cca5780518252602082019150602081019050602083039250611ca5565b6001836020036101000a03801982511681845116808217855250505050505090500191505090815260200160405180910390206000018054806001018281611d1291906120ca565b9160005260206000209001600086909190916101000a81548173ffffffffffffffffffffffffffffffffffffffff021916908373ffffffffffffffffffffffffffffffffffffffff160217905550505b60001515600460008673ffffffffffffffffffffffffffffffffffffffff1673ffffffffffffffffffffffffffffffffffffffff16815260200190815260200160002060009054906101000a900460ff1615151415611e2f57611dd06001805461208b90919063ffffffff16565b6001819055506001600460008673ffffffffffffffffffffffffffffffffffffffff1673ffffffffffffffffffffffffffffffffffffffff16815260200190815260200160002060006101000a81548160ff0219169083151502179055505b50505050565b6000809054906101000a900473ffffffffffffffffffffffffffffffffffffffff1673ffffffffffffffffffffffffffffffffffffffff163373ffffffffffffffffffffffffffffffffffffffff16141515611e9057600080fd5b806000806101000a81548173ffffffffffffffffffffffffffffffffffffffff021916908373ffffffffffffffffffffffffffffffffffffffff16021790555050565b6000600660008460001916600019168152602001908152602001600020826040518082805190602001908083835b602083101515611f265780518252602082019150602081019050602083039250611f01565b6001836020036101000a038019825116818451168082178552505050505050905001915050908152602001604051809103902060010180549050905092915050565b60026020528060005260406000206000915090505481565b60015481565b6000809054906101000a900473ffffffffffffffffffffffffffffffffffffffff1673ffffffffffffffffffffffffffffffffffffffff163373ffffffffffffffffffffffffffffffffffffffff16141515611fe157600080fd5b80600760008473ffffffffffffffffffffffffffffffffffffffff1673ffffffffffffffffffffffffffffffffffffffff16815260200190815260200160002060006101000a81548160ff0219169083151502179055505050565b600080600061204b8787610943565b612056888887611a6e565b61206289898989610c6d565b9250925092509450945094915050565b600082821115151561208057fe5b818303905092915050565b600080828401905083811015151561209f57fe5b8091505092915050565b50805460008255906000526020600020908101906120c791906120f6565b50565b8154818355818115116120f1578183600052602060002091820191016120f091906120f6565b5b505050565b61211891905b808211156121145760008160009055506001016120fc565b5090565b905600a165627a7a72305820657416f0f840b40bf0851e3ee40ebc10f27b0df94780b3adac03648d453387fd0029",
  "source": "pragma solidity 0.4.21;\n\n\nimport \"../../ownership/Owned.sol\";\nimport \"../../math/SafeMath.sol\";\n\n\n/*\n * Database Contract\n * Davy Van Roy\n * Quinten De Swaef\n */\ncontract FundRepository is Owned {\n\n    using SafeMath for uint256;\n\n    uint256 public totalNumberOfFunders;\n\n    //token => _totalFunded\n    mapping(address => uint256) public totalFunded;\n\n    uint256 public requestsFunded;\n\n    //funder => _hasFunded\n    mapping(address => bool) funders;\n\n    //token => _totalBalance\n    mapping(address => uint256) public totalBalance;\n\n    //platform -> platformId => _funding\n    mapping(bytes32 => mapping(string => Funding)) funds;\n\n    mapping(address => bool) public callers;\n\n    struct Funding {\n        address[] funders; //funders that funded tokens\n        address[] tokens; //tokens that were funded\n        mapping(address => TokenFunding) tokenFunding;\n        mapping(address => UserFunding) userFunding;\n    }\n\n    struct TokenFunding {\n        mapping(address => uint256) balance;\n        uint256 totalTokenBalance;\n    }\n\n    struct UserFunding {\n        mapping(address => uint256) tokenBalances;\n        bool funded;\n    }\n\n    //modifiers\n    modifier onlyCaller {\n        require(callers[msg.sender]);\n        _;\n    }\n\n    function FundRepository() public {\n        //constructor\n    }\n\n    function updateFunders(address _from, bytes32 _platform, string _platformId) public onlyCaller {\n        bool existing = funds[_platform][_platformId].userFunding[_from].funded;\n        if (!existing) {\n            funds[_platform][_platformId].funders.push(_from);\n        }\n        if (funders[_from] == false) {\n            totalNumberOfFunders = totalNumberOfFunders.add(1);\n            funders[_from] = true;\n        }\n    }\n\n    function updateBalances(address _from, bytes32 _platform, string _platformId, address _token, uint256 _value) public onlyCaller {\n        if (funds[_platform][_platformId].tokens.length <= 0) {\n            requestsFunded = requestsFunded.add(1);\n        }\n\n        if (funds[_platform][_platformId].tokenFunding[_token].totalTokenBalance <= 0) {\n            funds[_platform][_platformId].tokens.push(_token);\n        }\n\n        //add to the current balance of the user for this token\n        funds[_platform][_platformId].tokenFunding[_token].balance[_from] = funds[_platform][_platformId].tokenFunding[_token].balance[_from].add(_value);\n\n        //add to the overall balance of this token\n        funds[_platform][_platformId].tokenFunding[_token].totalTokenBalance = funds[_platform][_platformId].tokenFunding[_token].totalTokenBalance.add(_value);\n\n        //add to the balance the user has funded for the request\n        funds[_platform][_platformId].userFunding[_from].tokenBalances[_token] = funds[_platform][_platformId].userFunding[_from].tokenBalances[_token].add(_value);\n        funds[_platform][_platformId].userFunding[_from].funded = true;\n\n        totalBalance[_token] = totalBalance[_token].add(_value);\n        totalFunded[_token] = totalFunded[_token].add(_value);\n    }\n\n    function claimToken(bytes32 platform, string platformId, address _token) public onlyCaller returns (uint256) {\n        uint256 totalTokenBalance = funds[platform][platformId].tokenFunding[_token].totalTokenBalance;\n        delete funds[platform][platformId].tokenFunding[_token];\n        totalBalance[_token] = totalBalance[_token].sub(totalTokenBalance);\n        return totalTokenBalance;\n    }\n\n    function finishResolveFund(bytes32 platform, string platformId) public onlyCaller returns (bool) {\n        delete (funds[platform][platformId]);\n        return true;\n    }\n\n    //constants\n    function getFundInfo(bytes32 _platform, string _platformId, address _funder, address _token) public view returns (uint256, uint256, uint256) {\n        return (\n        getFunderCount(_platform, _platformId),\n        balance(_platform, _platformId, _token),\n        amountFunded(_platform, _platformId, _funder, _token)\n        );\n    }\n\n    function getFundedTokenCount(bytes32 _platform, string _platformId) public view returns (uint256) {\n        return funds[_platform][_platformId].tokens.length;\n    }\n\n    function getFundedTokensByIndex(bytes32 _platform, string _platformId, uint _index) public view returns (address) {\n        return funds[_platform][_platformId].tokens[_index];\n    }\n\n    function getFunderCount(bytes32 _platform, string _platformId) public view returns (uint) {\n        return funds[_platform][_platformId].funders.length;\n    }\n\n    function amountFunded(bytes32 _platform, string _platformId, address _funder, address _token) public view returns (uint256) {\n        return funds[_platform][_platformId].userFunding[_funder].tokenBalances[_token];\n    }\n\n    function balance(bytes32 _platform, string _platformId, address _token) view public returns (uint256) {\n        return funds[_platform][_platformId].tokenFunding[_token].totalTokenBalance;\n    }\n\n    //management of the repositories\n    function updateCaller(address _caller, bool allowed) public onlyOwner {\n        callers[_caller] = allowed;\n    }\n\n    function() public {\n        // dont receive ether via fallback\n    }\n}",
  "sourcePath": "/Users/QuintenDes/FundRequest/contracts/contracts/platform/repository/FundRepository.sol",
  "compiler": {
    "name": "solc",
    "version": "0.4.21+commit.dfe3193c.Emscripten.clang"
  },
  "schemaVersion": "2.0.0",
  "updatedAt": "2018-04-05T08:53:43.650Z"
}