{
  "contractName": "TokenWhitelistPrecondition",
  "abi": [
    {
      "constant": true,
      "inputs": [],
      "name": "active",
      "outputs": [
        {
          "name": "",
          "type": "bool"
        }
      ],
      "payable": false,
      "stateMutability": "view",
      "type": "function"
    },
    {
      "constant": true,
      "inputs": [],
      "name": "name",
      "outputs": [
        {
          "name": "",
          "type": "string"
        }
      ],
      "payable": false,
      "stateMutability": "view",
      "type": "function"
    },
    {
      "constant": true,
      "inputs": [],
      "name": "version",
      "outputs": [
        {
          "name": "",
          "type": "uint256"
        }
      ],
      "payable": false,
      "stateMutability": "view",
      "type": "function"
    },
    {
      "constant": true,
      "inputs": [],
      "name": "owner",
      "outputs": [
        {
          "name": "",
          "type": "address"
        }
      ],
      "payable": false,
      "stateMutability": "view",
      "type": "function"
    },
    {
      "constant": false,
      "inputs": [
        {
          "name": "_newOwner",
          "type": "address"
        }
      ],
      "name": "changeOwner",
      "outputs": [],
      "payable": false,
      "stateMutability": "nonpayable",
      "type": "function"
    },
    {
      "constant": false,
      "inputs": [
        {
          "name": "_active",
          "type": "bool"
        }
      ],
      "name": "setActive",
      "outputs": [],
      "payable": false,
      "stateMutability": "nonpayable",
      "type": "function"
    },
    {
      "inputs": [
        {
          "name": "_name",
          "type": "string"
        },
        {
          "name": "_version",
          "type": "uint256"
        },
        {
          "name": "_active",
          "type": "bool"
        }
      ],
      "payable": false,
      "stateMutability": "nonpayable",
      "type": "constructor"
    },
    {
      "payable": false,
      "stateMutability": "nonpayable",
      "type": "fallback"
    },
    {
      "anonymous": false,
      "inputs": [
        {
          "indexed": true,
          "name": "token",
          "type": "address"
        },
        {
          "indexed": false,
          "name": "allowed",
          "type": "bool"
        }
      ],
      "name": "Allowed",
      "type": "event"
    },
    {
      "anonymous": false,
      "inputs": [
        {
          "indexed": true,
          "name": "token",
          "type": "address"
        },
        {
          "indexed": false,
          "name": "allowed",
          "type": "bool"
        },
        {
          "indexed": false,
          "name": "platform",
          "type": "bytes32"
        },
        {
          "indexed": false,
          "name": "platformId",
          "type": "string"
        }
      ],
      "name": "Allowed",
      "type": "event"
    },
    {
      "constant": true,
      "inputs": [
        {
          "name": "_platform",
          "type": "bytes32"
        },
        {
          "name": "_platformId",
          "type": "string"
        },
        {
          "name": "_token",
          "type": "address"
        },
        {
          "name": "_value",
          "type": "uint256"
        },
        {
          "name": "_funder",
          "type": "address"
        }
      ],
      "name": "isValid",
      "outputs": [
        {
          "name": "valid",
          "type": "bool"
        }
      ],
      "payable": false,
      "stateMutability": "view",
      "type": "function"
    },
    {
      "constant": false,
      "inputs": [
        {
          "name": "_token",
          "type": "address"
        },
        {
          "name": "_allowed",
          "type": "bool"
        }
      ],
      "name": "allowDefaultToken",
      "outputs": [],
      "payable": false,
      "stateMutability": "nonpayable",
      "type": "function"
    },
    {
      "constant": false,
      "inputs": [
        {
          "name": "_platform",
          "type": "bytes32"
        },
        {
          "name": "_platformId",
          "type": "string"
        },
        {
          "name": "_token",
          "type": "address"
        },
        {
          "name": "_allowed",
          "type": "bool"
        }
      ],
      "name": "allow",
      "outputs": [],
      "payable": false,
      "stateMutability": "nonpayable",
      "type": "function"
    }
  ],
  "bytecode": "0x60606040526000600360006101000a81548160ff021916908315150217905550341561002a57600080fd5b604051610b51380380610b5183398101604052808051820191906020018051906020019091908051906020019091905050828282336000806101000a81548173ffffffffffffffffffffffffffffffffffffffff021916908373ffffffffffffffffffffffffffffffffffffffff16021790555080600360006101000a81548160ff0219169083151502179055508160028190555080600360006101000a81548160ff021916908315150217905550505050505050610a63806100ee6000396000f300606060405260043610610099576000357c0100000000000000000000000000000000000000000000000000000000900463ffffffff16806302fb0c5e146100a657806306fdde03146100d357806354fd4d50146101615780638316394e1461018a5780638da5cb5b1461021e578063a6f9dae114610273578063a8c23cb9146102ac578063acec338a14610375578063f0fb8efd1461039a575b34156100a457600080fd5b005b34156100b157600080fd5b6100b96103de565b604051808215151515815260200191505060405180910390f35b34156100de57600080fd5b6100e66103f1565b6040518080602001828103825283818151815260200191508051906020019080838360005b8381101561012657808201518184015260208101905061010b565b50505050905090810190601f1680156101535780820380516001836020036101000a031916815260200191505b509250505060405180910390f35b341561016c57600080fd5b61017461048f565b6040518082815260200191505060405180910390f35b341561019557600080fd5b61021c60048080356000191690602001909190803590602001908201803590602001908080601f0160208091040260200160405190810160405280939291908181526020018383808284378201915050505050509190803573ffffffffffffffffffffffffffffffffffffffff169060200190919080351515906020019091905050610495565b005b341561022957600080fd5b61023161069e565b604051808273ffffffffffffffffffffffffffffffffffffffff1673ffffffffffffffffffffffffffffffffffffffff16815260200191505060405180910390f35b341561027e57600080fd5b6102aa600480803573ffffffffffffffffffffffffffffffffffffffff169060200190919050506106c3565b005b34156102b757600080fd5b61035b60048080356000191690602001909190803590602001908201803590602001908080601f0160208091040260200160405190810160405280939291908181526020018383808284378201915050505050509190803573ffffffffffffffffffffffffffffffffffffffff1690602001909190803590602001909190803573ffffffffffffffffffffffffffffffffffffffff16906020019091905050610761565b604051808215151515815260200191505060405180910390f35b341561038057600080fd5b610398600480803515159060200190919050506108b7565b005b34156103a557600080fd5b6103dc600480803573ffffffffffffffffffffffffffffffffffffffff16906020019091908035151590602001909190505061092f565b005b600360009054906101000a900460ff1681565b60018054600181600116156101000203166002900480601f0160208091040260200160405190810160405280929190818152602001828054600181600116156101000203166002900480156104875780601f1061045c57610100808354040283529160200191610487565b820191906000526020600020905b81548152906001019060200180831161046a57829003601f168201915b505050505081565b60025481565b6000809054906101000a900473ffffffffffffffffffffffffffffffffffffffff1673ffffffffffffffffffffffffffffffffffffffff163373ffffffffffffffffffffffffffffffffffffffff161415156104f057600080fd5b80600460008660001916600019168152602001908152602001600020846040518082805190602001908083835b602083101515610542578051825260208201915060208101905060208303925061051d565b6001836020036101000a038019825116818451168082178552505050505050905001915050908152602001604051809103902060008473ffffffffffffffffffffffffffffffffffffffff1673ffffffffffffffffffffffffffffffffffffffff16815260200190815260200160002060006101000a81548160ff0219169083151502179055508173ffffffffffffffffffffffffffffffffffffffff167ffdde68b941e5f29d8a7cf0366587c18c409068ded57e6ab9ca4873ee6436dae38286866040518084151515158152602001836000191660001916815260200180602001828103825283818151815260200191508051906020019080838360005b8381101561065c578082015181840152602081019050610641565b50505050905090810190601f1680156106895780820380516001836020036101000a031916815260200191505b5094505050505060405180910390a250505050565b6000809054906101000a900473ffffffffffffffffffffffffffffffffffffffff1681565b6000809054906101000a900473ffffffffffffffffffffffffffffffffffffffff1673ffffffffffffffffffffffffffffffffffffffff163373ffffffffffffffffffffffffffffffffffffffff1614151561071e57600080fd5b806000806101000a81548173ffffffffffffffffffffffffffffffffffffffff021916908373ffffffffffffffffffffffffffffffffffffffff16021790555050565b6000600360009054906101000a900460ff1615806108ac575060011515600560008673ffffffffffffffffffffffffffffffffffffffff1673ffffffffffffffffffffffffffffffffffffffff16815260200190815260200160002060009054906101000a900460ff16151514806108ab575060011515600460008860001916600019168152602001908152602001600020866040518082805190602001908083835b6020831015156108295780518252602082019150602081019050602083039250610804565b6001836020036101000a038019825116818451168082178552505050505050905001915050908152602001604051809103902060008673ffffffffffffffffffffffffffffffffffffffff1673ffffffffffffffffffffffffffffffffffffffff16815260200190815260200160002060009054906101000a900460ff161515145b5b905095945050505050565b6000809054906101000a900473ffffffffffffffffffffffffffffffffffffffff1673ffffffffffffffffffffffffffffffffffffffff163373ffffffffffffffffffffffffffffffffffffffff1614151561091257600080fd5b80600360006101000a81548160ff02191690831515021790555050565b6000809054906101000a900473ffffffffffffffffffffffffffffffffffffffff1673ffffffffffffffffffffffffffffffffffffffff163373ffffffffffffffffffffffffffffffffffffffff1614151561098a57600080fd5b80600560008473ffffffffffffffffffffffffffffffffffffffff1673ffffffffffffffffffffffffffffffffffffffff16815260200190815260200160002060006101000a81548160ff0219169083151502179055508173ffffffffffffffffffffffffffffffffffffffff167f64966f3fe2ac8cae5e6f7e4196d1315efafdb78a4377de3887c56fa3b9ac47cb82604051808215151515815260200191505060405180910390a250505600a165627a7a72305820da1559be10a573246508865630e8b8c484de32c424183efa414c7762a13523150029",
  "source": "pragma solidity 0.4.21;\n\nimport \"./Precondition.sol\";\n\n\ncontract TokenWhitelistPrecondition is Precondition {\n\n    event Allowed(address indexed token, bool allowed);\n    event Allowed(address indexed token, bool allowed, bytes32 platform, string platformId);\n\n    //platform -> platformId -> token => _allowed\n    mapping(bytes32 => mapping(string => mapping(address => bool))) tokenWhitelist;\n\n    //token => _allowed\n    mapping(address => bool) defaultWhitelist;\n\n    function TokenWhitelistPrecondition(string _name, uint _version, bool _active) public Precondition(_name, _version, _active) {\n        //constructor\n    }\n\n    function isValid(bytes32 _platform, string _platformId, address _token, uint256 _value, address _funder) public view returns (bool valid) {\n        return !active || (defaultWhitelist[_token] == true || tokenWhitelist[_platform][_platformId][_token] == true);\n    }\n\n    function allowDefaultToken(address _token, bool _allowed) public onlyOwner {\n        defaultWhitelist[_token] = _allowed;\n        Allowed(_token, _allowed);\n    }\n\n    function allow(bytes32 _platform, string _platformId, address _token, bool _allowed) public onlyOwner {\n        tokenWhitelist[_platform][_platformId][_token] = _allowed;\n        Allowed(_token, _allowed, _platform, _platformId);\n    }\n}",
  "sourcePath": "/Users/QuintenDes/FundRequest/contracts/contracts/platform/validation/TokenWhitelistPrecondition.sol",
  "compiler": {
    "name": "solc",
    "version": "0.4.21+commit.dfe3193c.Emscripten.clang"
  },
  "schemaVersion": "2.0.0",
  "updatedAt": "2018-04-05T08:55:09.090Z"
}